:020000040800F2
:1000000000500020E1700008DB100008DD1000083F
:10001000DF100008E1100008E310000800000000F5
:10002000000000000000000000000000E5100008D3
:10003000E710000800000000E9100008EB100008BD
:100040002971000829710008297100082971000828
:100050002971000829710008297100082971000818
:100060002971000829710008297100082971000808
:10007000297100082971000829710008F910000889
:1000800029710008297100082971000829710008E8
:1000900029710008297100082971000829710008D8
:1000A00029710008297100082971000829710008C8
:1000B00029710008297100082971000829710008B8
:1000C00029710008297100082971000829710008A8
:1000D0002971000809110008297100082971000818
:1000E000297100082971000829710008000000002A
:1000F0000000000000000000000000000000000000
:0C01000000000000000000005FF808F1A3
:10010C000348044B834202D0034B03B1184770479A
:10011C0074200020742000200000000005480649CF
:10012C000B1AD90F01EBA301491002D0034B03B1F9
:10013C001847704774200020742000200000000035
:10014C0010B5064C237843B9FFF7DAFF044B13B113
:10015C000448AFF300800123237010BD74200020ED
:10016C00000000002C71000808B5044B1BB10449B9
:10017C000448AFF30080BDE80840CFE70000000062
:10018C00782000202C71000870B50D4E0D4D761B9B
:10019C00B61006D00024013455F8043B9847A6420B
:1001AC00F9D1094E094D06F0BBFF761BB61006D0EF
:1001BC000024013455F8043B9847A642F9D170BD90
:1001CC00B07A0108B07A0108B47A0108B07A010853
:1001DC0070B5141E9AB0054629DB1A464FF402730B
:1001EC0000910491ADF80C304FF6FF7611D0013C24
:1001FC001E9B694602940594ADF80E6000F008F958
:10020C00421C01DA8B232B600022009B1A701AB05F
:10021C0070BD1E9B694602940594ADF80E6000F00B
:10022C00F7F8431C01DA8B232B601AB070BD8B23BB
:10023C004FF0FF302B60F8E710B5054C82B00093FF
:10024C0013460A4601462068FFF7C2FF02B010BDF4
:10025C00000000202DE9F0478E6880469E420C4637
:10026C001D461746086836D8B1F80CC01CF4906FC0
:10027C000DD135462A46394600F0A0FC0020A26874
:10028C002368961B2B44A6602360BDE8F087D1E958
:10029C00041606EB460606EBD676A0EB01090133F5
:1002AC0076104B44B342324684BF1E4632461CF491
:1002BC00806F12D01146404600F03AFD824600B3E2
:1002CC004A46216900F004FCA38923F4906343F0AF
:1002DC008003A38106E01E46CCE7404600F08CFD6F
:1002EC00824650B1A6EB09030AEB09006661C4F81B
:1002FC0010A02060A3602E46BCE72169404600F0A8
:10030C00C3FC0C23C8F80030A3894FF0FF3043F036
:10031C004003A381B9E700BF2DE9F04F936883B088
:10032C009046002B6DD0176882460C46086808373B
:10033C008D6843E0A38913F4906F2ED0D4E9041593
:10034C0005EB4505A0EB010B05EBD5750BEB06009A
:10035C006D100130A8422A4684BF05462A465B052B
:10036C0036D51146504600F0E3FC00283AD05A46E8
:10037C002169019000F0ACFBA289019B22F49062F0
:10038C0042F08002A281A5EB0B0203EB0B0065612E
:10039C00B346354623612060A2605A46494600F0B8
:1003AC000DFCD8F80830A2682068551B58449E1BD9
:1003BC00A5602060C8F808601EB3083757E902969C
:1003CC00AB46002EF9D0AE42B4D23546B346E4E784
:1003DC00504600F011FD03460028D4D12169504647
:1003EC0000F052FC0C2300224FF0FF30CAF8003012
:1003FC00A38943F04003A381C8E9012203B0BDE8FF
:10040C00F08F0020C8F8040003B0BDE8F08F00BFE7
:10041C002DE9F04F8B4689899FB00C0690460290CF
:10042C0004D5DBF81020002A00F00D8100202021DB
:10043C003022059398F8003001270B908DF831107D
:10044C008C4E8DF83220002B00F08680252B00F08E
:10045C00F880454603E0252B00F0888025466B7814
:10046C006C1C002BF7D1B4EB080A75D042465346EE
:10047C0059460298FFF7EEFE01306DD00B9B6A785F
:10048C0053440B93002A67D000234FF0FF32013402
:10049C000693CDE908338DF85B301C93079206E088
:1004AC002C46069B801B07FA00F018430690254645
:1004BC00052215F8011B304600F0C4FAAA460028A4
:1004CC00EED1069BD90644BF20228DF85B201A077B
:1004DC0048BF2B22217848BF8DF85B202A2949D1AF
:1004EC00059A11680432002905927FDB0991617825
:1004FC00A51C2E2957D0604C0322204600F0A2FAEE
:10050C00002869D04022069B001B02FA00F003432E
:10051C00069305F101082B780622194657488DF8E9
:10052C00303000F08FFA002866D0554B002B56D097
:10053C0005AB00935A46534B06A90298AFF30080C3
:10054C008146B9F1FF3F07D00B9B4B440B9398F8B6
:10055C000030002B7FF47AAFBBF80C305B064CBF3D
:10056C004FF0FF300B981FB0BDE8F08FB4EB080ACA
:10057C008AD07BE7A1F13002092A88BFA246B8D8FD
:10058C00099B01E02C460135297803EB830302EB30
:10059C004303A1F13002092AAA46F3D92E2904F10A
:1005AC0002050993A7D19AF801102A292ED1059B8F
:1005BC000AF102001A680433002A079205939AF88C
:1005CC0002100AF1030537DB2B4C8246032220462E
:1005DC0000F038FA002895D1A84655469BE7059BB4
:1005EC00073323F0070308330593ADE7494243F083
:1005FC000203099106937AE705AB00935A46214B07
:10060C0006A9029800F0D4F881469AE70023A1F1DC
:10061C003002092A079301D923E05546697803EB88
:10062C00830302EB4303A1F13002092A05F1010A0D
:10063C00F3D9023507935EE74FF0FF3382460793F9
:10064C0059E7444620E74021039300F071FB039BDC
:10065C00CBF80000CBF8100030B14022CBF81420BE
:10066C00E4E6AA46013546E70C23029A4FF0FF3028
:10067C00136078E7747A01087C7A0108807A0108A3
:10068C0000000000610200082DE9F0470C460969E2
:10069C00A56891468D42B8BF0D46156094F843107D
:1006AC0006461F46DDF8208011B16A1CC9F80020EF
:1006BC00236899065CD5D9F800200232C9F80020CD
:1006CC00236813F0060F19461DD1E1688A1A002A17
:1006DC00D8BF194617DD002504F1190A05E0E368B7
:1006EC00D9F800209B1AAB420CDD01235246394647
:1006FC003046C047013005F10105F0D14FF0FF3015
:10070C00BDE8F087216894F84330003318BF01230B
:10071C008A060AD53021E21882F8431094F8451065
:10072C005A1C224482F84310023304F14302394626
:10073C003046C0470130E1D02368A26803F00603BD
:10074C00042B21691DD08A4226DD4FF00009521A74
:10075C00914400251A3401E04D451DDA012322464F
:10076C0039463046C047013005F10105F4D1C5E7E3
:10077C0013F0060F13D094F84330003318BF012345
:10078C00D3E7D9F80000E3688A42A3EB000323EA1D
:10079C00E379DCDC002BDCDC0020BDE8F087E168D1
:1007AC00D9F800208A1A002AD8BF194693DCAAE788
:1007BC002DE9F0430C46097E85B06E290646174696
:1007CC00984604F1430C0C986DD039D9732900F07C
:1007DC00F48044D9752900F00281782940F00F810A
:1007EC0078232268DFF854E284F845300168150656
:1007FC0051F8043B016040F1A180D10744BF42F0A5
:10080C0020022260002B00F093801022002184F83B
:10081C00431060680028A060C0F2C680216821F0F7
:10082C0004012160002B40F0A280002840F0BE8023
:10083C006546082A00F0AB80ACEB0503236141E070
:10084C00632900F0E3801AD8002938D0582940F0E9
:10085C00D68084F845102268DFF8E4E1C6E76F29FA
:10086C0000F0BD80702940F0CA8078232268DFF840
:10087C00CCE142F02002226084F84530B6E76429CE
:10088C0002D0692940F0BB8022680368110603F18D
:10089C00040557D5196805600B46002959DB0A2257
:1008AC00DFF89CE1B5E7036822681D1D61690560EE
:1008BC0015061B6802D4500600F1BB80196000239A
:1008CC0065462361CDF800803B4603AA214630469D
:1008DC00FFF7DAFE013020D02A462369394630462C
:1008EC00C047013019D0226803989207E36819D5E4
:1008FC001A1A002A16DD002504F1190904E0E36830
:10090C0003981A1AAA420DDD01234A46394630468D
:10091C00C047013005F10105F1D14FF0FF3005B0B2
:10092C00BDE8F0839842B8BF184605B0BDE8F08327
:10093C002168102221F02001216067E7500648BF92
:10094C009BB25AE75106A5D5B3F90030056019469C
:10095C00A3E72D2061685B42002984F84300A16065
:10096C0002DB22F0040222600A22DFF8D4E06546A2
:10097C0000E00B46B3FBF2F102FB11301EF8000055
:10098C00934205F8010DF4D2082A7FF455AF236881
:10099C00DB077FF551AF626823699A423FF74CAF92
:1009AC003023013D2B7047E7002BE0D19EF800303F
:1009BC0004F1420584F842303BE703686268191D74
:1009CC0001601D680021284600F03CF8002832D058
:1009DC00401B60602061002384F8433072E722687A
:1009EC00036812F0800F03F104051AD01B68056030
:1009FC006F290CBF08220A22DFF844E006E7012326
:100A0C0084F84210236104F14205E4E701220368F3
:100A1C0004F14205191D1B68016084F84230226103
:100A2C00D9E712F0400F0DBF1B6805601B880560ED
:100A3C00DEE7198043E76068CCE700BF9C7A0108C9
:100A4C00887A0108830770B4CDB23DD0541E0AB326
:100A5C000378AB421FD0431C05E014F1FF3419D3CB
:100A6C000278AA4217D013F0030F184603F10103C2
:100A7C00F3D1032C11D84CB30378AB420BD0044404
:100A8C00431C02E00278AA4205D09C42184603F1AE
:100A9C000103F7D1002070BC704702460E02B6B2BB
:100AAC002E4346EA0646136810467340A3F1013103
:100ABC0021EA030313F0803F02F10402DCD1043C71
:100ACC00032C1046EFD8D6E71446D2E72046E2E7CF
:100ADC00844641EA000313F0030349D1403A23D37F
:100AEC000B6803604B6843608B688360CB68C360A2
:100AFC000B6903614B6943618B698361CB69C3618A
:100B0C000B6A03624B6A43628B6A8362CB6AC36271
:100B1C000B6B03634B6B43638B6B8363CB6BC36359
:100B2C0040304031403ADBD230320BD30B6803609B
:100B3C004B6843608B688360CB68C36010301031A6
:100B4C00103AF3D20C3205D351F8043B40F8043B75
:100B5C00043AF9D2043208D0D2071CBF11F8013B79
:100B6C0000F8013B01D30B8803806046704700BF3F
:100B7C00082A13D38B07B1D010F00303AED0C3F106
:100B8C000403D21ADB071CBF11F8013B00F8013B30
:100B9C00A4D331F8023B20F8023B9FE7043AD9D3A7
:100BAC00013A11F8013B00F8013BF9D20B780370C4
:100BBC004B7843708B788370604670478842F0B4F2
:100BCC000DD98B1883420AD9841832B1224613F8F6
:100BDC00014D994202F8014DF9D1F0BC70470F2A32
:100BEC000ED80346541E002AF7D001340C44013BA6
:100BFC0011F8012BA14203F8012FF9D1F0BC704779
:100C0C0040EA01039B073AD1A2F110073F0901F119
:100C1C00200606EB071601F1100300F1100453F83F
:100C2C00105C103344F8105C53F81C5C103444F81E
:100C3C001C5C53F8185C44F8185C53F8145CB34211
:100C4C0044F8145CEBD17B1C1B0112F00C0F194403
:100C5C0002F00F05034415D00E46043DAD0803EB1E
:100C6C00850C1C1F56F8047B44F8047F6445F9D1AD
:100C7C000135AD002B44294402F00302B2E7541EA7
:100C8C000346B2E72A46ADE700293AD038B551F809
:100C9C00043C0C1F002BB8BFE418054600F0E4F828
:100CAC00224B1A682AB1A2420DD9216860188242DF
:100CBC0021D0626028461C60BDE8384000F0D6B8F0
:100CCC00A34203D81A465368002BF9D11168501867
:100CDC00A04217D022D821686018834203BFD3E901
:100CEC0000030918C4E90013636054602846BDE88A
:100CFC00384000F0BBB8D2E900020144C4E900124C
:100D0C00D8E7704720680144501883421160EDD138
:100D1C00D3E900030144C2E90013E7E70C2328469A
:100D2C002B60BDE8384000F0A1B800BF9020002037
:100D3C00F8B5CD1C25F0030508350C2D38BF0C2556
:100D4C00002D064633DBA94231D82A4F00F08CF82F
:100D5C003A6852B113685B1B04D43FE023685B1BF9
:100D6C0029D522465468002CF8D1796800293BD04B
:100D7C002946304600F066F8431C28D0C41C24F0E9
:100D8C000304A04205D0211A304600F05BF8013074
:100D9C001DD02560304600F069F804F10B0020F0FE
:100DAC000700231DC21A01D01B1AA350F8BD0C2238
:100DBC0000203260F8BD0B2B05D8A242636811D01D
:100DCC005360E7E7144623601C442560E2E70C23DC
:100DDC003046336000F04AF80020F8BD0B2BF1D8F8
:100DEC00144653683B60D5E7304600F02BF878602A
:100DFC00BEE700BF9020002009B3F8B51446CAB175
:100E0C0006460D4600F034F8A04202D32F46384671
:100E1C00F8BD21463046FFF78BFF07460028F6D079
:100E2C0022462946FFF754FE30462946FFF72CFF91
:100E3C003846F8BD2746FFF727FF3846F8BD114660
:100E4C00FFF776BF38B50023064C054608462360ED
:100E5C0000F016F8431C00D038BD2368002BFBD0E3
:100E6C002B6038BD24430020704700BF704700BF83
:100E7C0051F8043C181F002BBCBF0B58C01870470E
:100E8C00044A05491368002B08BF0B461844106030
:100E9C001846704798200020284300202DE9F04385
:100EAC0089B02F4B9A6942F010029A619A6902F04C
:100EBC0010020092009A9A6942F020029A619A6993
:100ECC0002F020020192019A9A6942F004029A619E
:100EDC009A6902F004020292029A9A6942F008029C
:100EEC009A619B6903F008030393039BDFF87890E6
:100EFC0000224FF40051484601F0E2FBDFF86C8011
:100F0C000022FF21404601F0DBFB164F00224FF47C
:100F1C007841384601F0D4FB4FF40053049301267A
:100F2C000596002506950224079404A9484601F06D
:100F3C0019FAFF23049305960695079404A94046D5
:100F4C0001F010FA4FF47843049305960695079434
:100F5C0004A9384601F006FA09B0BDE8F08300BFD9
:100F6C0000100240000C014000100140000801403C
:100F7C0000B583B00A4B5A6942F001025A615B69B1
:100F8C0003F001030193019B002211460F2001F095
:100F9C00DFFD0F2001F022FE03B05DF804FB00BF63
:100FAC000010024008B500221146252001F0D0FDAA
:100FBC00252001F013FE08BDFEE7000008B50B4824
:100FCC000B4B03604FF4E133436000238360C36039
:100FDC0003610C2242618361C36100F0BDFA00B968
:100FEC0008BDD7210348FFF7E7FF00BFDC42002014
:100FFC00003801404471000800B591B001220692FE
:10100C004FF480330793002108910A9202220D922B
:10101C000E934FF4E0130F9306A800F093FD08BB5A
:10102C000F23019302210291002303934FF480625A
:10103C000492059301A801F04DF8B8B901F06CF9D0
:10104C000C4BA3FB0030800901F0DEFD042001F005
:10105C00F1FD002202214FF0FF3001F079FD11B0BB
:10106C005DF804FBA1210448FFF7A6FFAF2102485D
:10107C00FFF7A2FFD34D62104471000808B500F0D1
:10108C0013FDFFF7B9FFFFF709FFFFF771FFFFF73C
:10109C0095FFFFF787FF40F6B83000F029FD02F00E
:1010AC00EBFF07E0074B00221A704CF21E010648BA
:1010BC0005F0AAFF03F008F8024B1B78002BF9D0BF
:1010CC00F0E700BF1C4300205071000870477047C8
:1010DC00FEE7FEE7FEE7FEE770477047704708B58E
:1010EC0000F0F4FC01F0C5FD08BD000008B5024895
:1010FC0001F06EFC08BD00BF9842002008B5024804
:10110C0000F014FC08BD00BFDC42002000B583B029
:10111C00244B9A6942F001029A619A6902F0010229
:10112C000092009ADA6942F08052DA61DB6903F0CE
:10113C0080530193019B032001F0ECFC002211462B
:10114C006FF00B0001F004FD002211466FF00A0055
:10115C0001F0FEFC002211466FF0090001F0F8FCD2
:10116C00002211466FF0040001F0F2FC002211463F
:10117C006FF0030001F0ECFC002211466FF001004F
:10118C0001F0E6FC002202214FF0FF3001F0E0FC00
:10119C00054A536823F0E06343F08063536003B067
:1011AC005DF804FB00100240000001400268214B76
:1011BC009A4200D0704770B586B0044603F5584388
:1011CC009A6942F480429A619B6903F480430193CB
:1011DC00019B4FF4007302930223039303230593A3
:1011EC00154E02A9304601F0BDF84FF4806302930E
:1011FC0000250395049502A9304601F0B3F80F4879
:10120C000F4B0360456085608023C36005614561B9
:10121C00202383614FF44053C36101F093FA20B94A
:10122C00064B63635C6206B070BD7C210548FFF71A
:10123C00C3FEF5E700380140000801409842002049
:10124C0058000240703101080268D36823F0C003D3
:10125C00D360202380F8393070470268D36823F4B8
:10126C009073D3600268536923F001035361202308
:10127C0080F83A30704790F83930DBB2212B01D02E
:10128C00022070478368B3F5805F17D0036A5A1C3D
:10129C0002621A7803685A60C38C9BB2013B9BB202
:1012AC00C3844BB90268D36823F08003D36002680F
:1012BC00D36843F04003D36000207047036A1B8857
:1012CC000268C3F30803536003691BB9036A023352
:1012DC000362E1E7036A01330362DDE72DE9F843BA
:1012EC00044642687E4B9A4200F29180E3681BB13F
:1012FC00B3F5005F40F09180236933B1B3F5806F93
:10130C0003D0B3F5C06F40F08E8063694FF6F37273
:10131C00134200D123B940F6AA117248FFF7D6FE4A
:10132C002268136923F44053E1680B431361A368EB
:10133C0022691343626913432168CA6822F4B052CC
:10134C0022F00C021343CB602268536923F44073E0
:10135C00A1690B4353612268634B9A4269D000F038
:10136C00E1FF00EB800000EB80006568AD00B0FB96
:10137C00F5F55E4EA6FB05356D092F0100F0D2FF89
:10138C0000EB800505EB850563689B00B5FBF3F965
:10139C0000F0C8FF00EB800000EB80006568AD003A
:1013AC00B0FBF5F5A6FB05356D094FF0640808FB9D
:1013BC0015952D013235A6FB05356D0905F0F005A7
:1013CC003D4400F0AFFF00EB800000EB800067684D
:1013DC00BF00B0FBF7F700F0A5FF00EB800000EBBF
:1013EC00800063689B00B0FBF3F0A6FB0030400963
:1013FC0008FB10784FEA081808F13208A6FB0836EB
:10140C00C6F3431623682E449E60BDE8F88340F66D
:10141C00A7113448FFF75AFE68E740F6A811314887
:10142C00FFF754FE68E740F6A9112E48FFF74EFE71
:10143C006BE700F087FF00EB800000EB8000656835
:10144C00AD00B0FBF5F5294EA6FB05356D092F0156
:10145C0000F078FF00EB800505EB850563689B00C9
:10146C00B5FBF3F900F06EFF00EB800000EB8000A1
:10147C006568AD00B0FBF5F5A6FB05356D094FF0C1
:10148C00640808FB15952D013235A6FB05356D0951
:10149C0005F0F0053D4400F055FF00EB800000EB3B
:1014AC0080006768BF00B0FBF7F700F04BFF00EB64
:1014BC00800000EB800063689B00B0FBF3F0A6FBA0
:1014CC000030400908FB10784FEA081808F1320880
:1014DC00A6FB0836C6F3431623682E449E6094E799
:1014EC0020AA440088310108003801401F85EB51C7
:1014FC002DE9F84305460F4616469946DDF820803F
:10150C002C68246837EA04030CBF01240024B4427D
:10151C001FD1B8F1FF3FF3D0B8F1000F05D000F0A8
:10152C00E1FAA0EB09004045EAD92A68D36823F414
:10153C00D073D3602A68536923F0010353612023CD
:10154C0085F8393085F83A30002385F83830032097
:10155C0000E00020BDE8F88300286CD010B50446EC
:10156C0083690BB30368354A93420CD0A2F57442DD
:10157C00934208D002F58062934204D040F20F11DE
:10158C002F48FFF7A3FDA369FBB1B3F5807F1CD0F7
:10159C00B3F5007F19D0B3F5407F16D04FF48871A6
:1015AC002748FFF793FD10E00368244A93420CD0C0
:1015BC00A2F57442934208D002F58062934204D0A3
:1015CC004FF48A711E48FFF781FDA36813B1B3F580
:1015DC00805F24D194F839303BB3242384F839301C
:1015EC002268D36823F40053D3602046FFF776FEBD
:1015FC002268136923F4904313612268536923F022
:10160C002A0353612268D36843F40053D36000204B
:10161C00E063202384F8393084F83A3010BD4FF45D
:10162C008B710748FFF752FDD4E784F83830204619
:10163C00FFF7BCFDD1E70120704700BF0038014027
:10164C00883101082DE9F04182B01E4690F83930FE
:10165C00DBB2202B58D104460D469046002957D0BA
:10166C00002A57D090F83830012B55D0012380F840
:10167C0038300023C363212380F8393000F032FA6C
:10168C000746A4F82480A4F8268017E000963B4671
:10169C00002280212046FFF72BFF00283ED12B880B
:1016AC002268C3F30803536023690BB9023505E0C4
:1016BC00013503E015F8012B23685A60E38C9BB2CB
:1016CC009BB1E28C92B2013A92B2E284A368B3F578
:1016DC00805FDBD000963B46002280212046FFF73E
:1016EC0007FF0028E6D003200FE000963B460022BF
:1016FC0040212046FFF7FCFE90B9202384F83930B6
:10170C00002384F8383000E0022002B0BDE8F081FC
:10171C000120FAE70120F8E70220F6E70320F4E7BE
:10172C000320F2E730B583B0044690F83A00C0B21B
:10173C0020283CD100293DD0002A3DD094F83830E7
:10174C00012B3BD0012384F83830A162A2850025FF
:10175C00E563222384F83A30636B19489862636B13
:10176C001848D862636B18481863636B5D63206814
:10177C0013460A46011D606B01F090F80195236831
:10178C001A6801925A680192019A84F83850DA6802
:10179C0042F48072DA602268536943F001035361AA
:1017AC002268536943F040035361284600E002204D
:1017BC0003B030BD0120FBE70120F9E70220F7E779
:1017CC00F7170008D5180008E1180008704708B58D
:1017DC000168CA6822F04002CA60202280F83920D1
:1017EC00FFF7F4FF002008BD704708B50346406AB8
:1017FC001B681B6813F0200F13D10023C3850268EC
:10180C00D36823F48073D3600268536923F0010317
:10181C0053610268536923F040035361202380F81D
:10182C003A30FFF7E1FF08BD08B590F83A30DBB26B
:10183C00222B46D18368B3F5805F0FD003690BBBB5
:10184C0003685A68836A591C81621A70C38D9BB2F3
:10185C00013B9BB2C385F3B1002008BD826A0369CA
:10186C0043B903685B68C3F308031380836A0233CC
:10187C008362EBE703685B68DBB21380836A013336
:10188C008362E3E703685B68826A511C816203F040
:10189C007F031370DAE70268D36823F02003D36068
:1018AC000268D36823F48073D3600268536923F011
:1018BC0001035361202380F83A30FFF795FF002095
:1018CC00CBE70220C9E7704708B5406AFFF7FBFF7A
:1018DC0008BD704710B5446A23685A6994F83930CA
:1018EC00DBB2212B10D023685A6902F0400294F825
:1018FC003A30DBB2222B11D0E36B43F01003E363DD
:10190C002046FFF7E6FF10BD02F08002002AEAD065
:10191C000023E3842046FFF797FCE4E7002AEBD092
:10192C000023E3852046FFF798FCE5E710B5044655
:10193C0002681368D168526913F00F0005D113F0D7
:10194C00200F02D011F0200F13D128B112F0010298
:10195C0013D111F4907F10D113F0800F02D011F03D
:10196C00800F69D113F0400F02D011F0400F67D1F6
:10197C0010BD2046FFF758FFFAE713F0010F06D011
:10198C0011F4807F03D0E06B40F00100E06313F0B2
:10199C00040F04D01AB1E06B40F00200E06313F0C6
:1019AC00020F04D01AB1E06B40F00400E06313F0B6
:1019BC00080F04D01AB1E26B42F00802E263E26B4A
:1019CC00002AD5D013F0200F02D011F0200F21D116
:1019DC0023685B6903F04003E26B12F0080F00D13F
:1019EC0023B32046FFF739FC23685A6912F0400FE5
:1019FC0018D05A6922F040025A61636B73B1124AD3
:101A0C005A63606B00F098FF0028B1D0606B436B99
:101A1C009847ADE72046FFF707FFD9E72046FFF7C9
:101A2C0058FFA5E72046FFF754FFA1E72046FFF734
:101A3C0050FF0023E3639BE72046FFF71CFC97E76E
:101A4C002046FFF7C4FE93E7591A000808B5406A10
:101A5C000023C385C384FFF73CFF08BD10B50446C3
:101A6C000E4B18784FF47A73B3FBF0F30C4A1068F2
:101A7C00B0FBF3F001F0C8F868B90F2C01D90120C4
:101A8C000AE0002221464FF0FF3001F061F8054BCF
:101A9C001C60002000E0012010BD00BF640000208D
:101AAC006C0000206800002008B5074A136843F05A
:101ABC0010031360032001F02DF80220FFF7CEFF76
:101ACC00FFF724FB002008BD00200240034A1168E8
:101ADC00034B1B780B441360704700BF204300205E
:101AEC0064000020014B1868704700BF20430020A1
:101AFC0038B50446FFF7F6FF0546B4F1FF3F02D0B8
:101B0C00044B1B781C44FFF7EDFF401BA042FAD39B
:101B1C0038BD00BF6400002082B0084B1B68084A27
:101B2C00A2FB03235B0A00FB03F3019300BF019BA1
:101B3C005A1E0192002BF9D102B070476C000020A4
:101B4C00D34D621070B582B0044678B3236813B1DC
:101B5C0013F00F0F30D0236813F0010F46D06368D9
:101B6C002BB1B3F5803F02D0B3F5A02F2AD1AC4BEB
:101B7C005B6803F00C03042B2FD0A94B5B6803F0BC
:101B8C000C03082B24D06368B3F5803F5BD0002B8B
:101B9C006FD103F1804303F504331A6822F48032C9
:101BAC001A601A6822F480221A6051E04FF4B8715E
:101BBC009C48FFF78BFAC9E740F271119948FFF77F
:101BCC0085FAC8E740F277119648FFF77FFACEE71F
:101BDC00934B5B6813F4803FD5D0914B1B6813F487
:101BEC00003F03D06368002B00F02D82236813F0B4
:101BFC00020F00F089802369012B63D863691F2BC6
:101C0C0066D8874B5B6813F00C0F6CD0844B5B6809
:101C1C0003F00C03082B61D02369002B00F0998092
:101C2C00814B01221A60FFF75DFF05467C4B1B6858
:101C3C0013F0020F40F08480FFF754FF401B022882
:101C4C00F4D9032004E2764A136843F4803313601A
:101C5C00636843B3FFF746FF0546714B1B6813F4EB
:101C6C00003FC3D1FFF73EFF401B6428F5D903208A
:101C7C00EEE1B3F5A02F09D0694B1A6822F480323B
:101C8C001A601A6822F480221A60E1E703F180439B
:101C9C00A3F53C331A6842F480221A601A6842F4A5
:101CAC0080321A60D4E7FFF71DFF05465C4B1B68BA
:101CBC0013F4003F9AD0FFF715FF401B6428F5D9A9
:101CCC000320C5E140F2AB115648FFF7FFF995E749
:101CDC004FF4D6715348FFF7F9F992E7504B5B6814
:101CEC0013F4803F98D14E4B1B6813F0020F03D0B6
:101CFC002369012B40F0A981494A136823F0F803AA
:101D0C00616943EAC1031360236813F0080F3BD0E9
:101D1C00A369012B2FD8A369002B50D0434B012270
:101D2C001A60FFF7DFFE05463D4B5B6A13F0020FAE
:101D3C0027D1FFF7D7FE401B0228F5D9032087E1F6
:101D4C00374A136823F0F803616943EAC10313604F
:101D5C00DAE7354B00221A60FFF7C4FE0546304B1C
:101D6C001B6813F0020FCFD0FFF7BCFE401B0228FC
:101D7C00F5D903206CE14FF4F6712A48FFF7A6F968
:101D8C00C9E70120FFF7C8FE236813F0040F00F029
:101D9C00A680E368012B01D9052B22D1204BDB69EE
:101DAC0013F0805F23D11E4BDA6942F08052DA6166
:101DBC00DB6903F080530193019B012518E01B4B59
:101DCC0000221A60FFF78EFE0546154B5B6A13F076
:101DDC00020FD9D0FFF786FE401B0228F5D903204D
:101DEC0036E140F21B210F48FFF770F9D6E70025CA
:101DFC000F4B1B6813F4807F1CD0E368012B2DD094
:101E0C00002B43D103F1804303F504331A6A22F00B
:101E1C0001021A621A6A22F004021A6223E000BF5D
:101E2C0000100240C03101080000424280044242CE
:101E3C0000700040884A136843F480731360FFF706
:101E4C0051FE0646844B1B6813F4807FD5D1FFF7F7
:101E5C0049FE801B6428F5D90320F9E07F4A136AF8
:101E6C0043F001031362E36833B3FFF73BFE06460E
:101E7C007A4B1B6A13F0020F2FD1FFF733FE801B36
:101E8C0041F288339842F3D90320E1E0052B09D0C5
:101E9C00724B1A6A22F001021A621A6A22F00402C8
:101EAC001A62E0E76D4B1A6A42F004021A621A6A6F
:101EBC0042F001021A62D6E7FFF714FE0646674BA2
:101ECC001B6A13F0020F08D0FFF70CFE801B41F2C7
:101EDC0088339842F3D90320BAE0002D53D1E3693B
:101EEC00022B56D8E369002B00F0B1805B4A526894
:101EFC0002F00C02082A00F0AD80022B40F08F801B
:101F0C00236A13B1B3F5803F49D1636A4BB3B3F580
:101F1C00802F26D0B3F5002F23D0B3F5402F20D03F
:101F2C00B3F5801F1DD0B3F5A01F1AD0B3F5C01F99
:101F3C0017D0B3F5E01F14D0B3F5001F11D0B3F5D3
:101F4C00101F0ED0B3F5201F0BD0B3F5301F08D0E7
:101F5C00B3F5401F05D0B3F5501F02D0B3F5601F89
:101F6C0023D13F4B00221A60FFF7BCFD05463B4BCB
:101F7C001B6813F0007F1ED0FFF7B4FD401B022836
:101F8C00F5D9032064E0354AD36923F08053D3613B
:101F9C00A5E740F2B9213348FFF798F8A2E740F2E1
:101FAC00C2213048FFF792F8AFE740F2C3212D4829
:101FBC00FFF78CF8D5E7236AB3F5803F1AD0274991
:101FCC004B6823F47413226A606A024313434B6018
:101FDC00234B01221A60FFF785FD04461F4B1B683B
:101FEC0013F0007F19D1FFF77DFD001B0228F5D9F6
:101FFC0003202DE0A36813B1B3F5003F07D1174AB6
:10200C00536823F40033A1680B435360D7E740F2C5
:10201C00D9211448FFF75AF8F1E7002018E0104BCB
:10202C0000221A60FFF75EFD04460C4B1B6813F090
:10203C00007F06D0FFF756FD001B0228F5D90320C0
:10204C0006E0002004E0012002E0012000E0002076
:10205C0002B070BD0120FBE7007000400010024090
:10206C0060004242C031010886B0164B0FCB0DF117
:10207C00180C0CE90F0040F20123ADF80430124BA0
:10208C005B6803F00C02082A02D0104806B07047B7
:10209C00C3F38342624412F8102C13F4803F0CD02B
:1020AC00094B5B68C3F34043634413F8143C074883
:1020BC0000FB02F0B0FBF3F0E8E7054800FB02F090
:1020CC00E4E700BFF83101080010024000127A006A
:1020DC0000093D0070B50C460546002862D02B68FF
:1020EC0013F00F0F64D0022C68D8864B1B6803F0DA
:1020FC000703A3420BD2834A136823F0070323433D
:10210C001360136803F00703A34240F0F5802B68BB
:10211C0013F0020F18D0AB687BB1802B0DD0902B35
:10212C000BD0A02B09D0B02B07D0C02B05D0D02BB7
:10213C0003D0E02B01D0F02B46D1734A536823F027
:10214C00F003A9680B4353602B6813F0010F73D095
:10215C006B68022B3ED86B68012B41D0022B46D00A
:10216C00694A126812F0020F00F0C88066494A688A
:10217C0022F0030213434B60FFF7B4FC06466B6876
:10218C00012B3BD0022B48D05F4B5B6813F00C0F3C
:10219C0052D0FFF7A7FC831B41F288329342F3D94C
:1021AC0003209CE040F22E315848FEF78FFF96E753
:1021BC0040F22F315548FEF789FF94E74FF44C71EC
:1021CC005248FEF783FF90E740F249314F48FEF743
:1021DC007DFFB2E74FF454714C48FEF777FFBAE736
:1021EC00494A126812F4003FC0D1012077E0464AF8
:1021FC00126812F0007FB9D1012070E0424B5B688D
:10220C0003F00C03042B17D0FFF76CFC831B41F27B
:10221C0088329342F2D9032061E03B4B5B6803F0B8
:10222C000C03082B08D0FFF75DFC801B41F28833B0
:10223C009842F2D9032052E0324B1B6803F007039B
:10224C00A3420AD92F4A136823F0070323431360D0
:10225C00136803F00703A34252D12B6813F0040F49
:10226C0014D0EB685BB1B3F5806F08D0B3F5A06FF9
:10227C0005D0B3F5C06F02D0B3F5E06F30D1224A70
:10228C00536823F4E063E9680B4353602B6813F045
:10229C00080F15D02B695BB1B3F5806F08D0B3F57F
:1022AC00A06F05D0B3F5C06F02D0B3F5E06F1DD1B0
:1022BC00154A536823F46053296943EAC1035360F8
:1022CC00FFF7D2FE104B5B68C3F30313104AD35CC9
:1022DC00D840104B18600220FFF7C0FB002070BDE7
:1022EC004FF469710948FEF7F1FEC8E740F2AB31D3
:1022FC000648FEF7EBFEDBE70120F0E70120EEE7F6
:10230C000120ECE70020024000100240C03101081F
:10231C00B43201086C000020014B1868704700BFF4
:10232C006C00002008B5FFF7F7FF044B5B68C3F3A4
:10233C000223034AD35CD84008BD00BF0010024002
:10234C00C432010808B5FFF7E7FF044B5B68C3F321
:10235C00C223034AD35CD84008BD00BF0010024022
:10236C00C43201082DE9F04383B080460E46BC4BC5
:10237C00984213D003F5806398420FD003F5806325
:10238C0098420BD003F58063984207D003F5806325
:10239C00984203D0CD21B348FEF798FE33689AB229
:1023AC0012B11B0C1B041BB1CE21AE48FEF78EFEE6
:1023BC007368012B1ED9112B1CD0022B1AD0122B97
:1023CC0018D0A94A934215D002F58012934211D02D
:1023DC0002F5801293420DD0A2F5F812934209D067
:1023EC0002F58012934205D002F58012934201D07F
:1023FC00032B03D14FF000094D46DEE0CF21994865
:10240C00FEF764FEF6E7994A934210D007D9984A32
:10241C0093420CD002F58032934208D019E0A2F519
:10242C008012934203D002F5702293420DD1B3680F
:10243C00022B7ED8B368002B00F08980012B7ED054
:10244C00C8F814404FF0080903E0A2F5801293423B
:10245C00EDD0FF2F7ED84046FF2F7ED8AA00036810
:10246C000F21914023EA010309FA02F2134303609E
:10247C00736813F0805F00F09F807E4B9A6942F086
:10248C0001029A619B6903F001030193019BAA0865
:10249C00911C794B53F8210005F0030399000F238D
:1024AC008B4020EA03006E4B98455CD003F58063AB
:1024BC00984500F0D38003F58063984500F0E080E8
:1024CC0003F5806398454CD004234DE0F368013B41
:1024DC00022B02D8D6F80C90BBE7E5216148FEF739
:1024EC00F5FDF7E7F368013B022B03D8F36803F122
:1024FC000409AEE7EC215B48FEF7E8FDF6E7F3686C
:10250C00013B022B03D8F36803F10809A1E7F3217F
:10251C005448FEF7DBFDF6E7F368013B022B03D8CA
:10252C00F36803F10C0994E7FA214E48FEF7CEFD4F
:10253C00F6E740F207114B48FEF7C8FD7AE7C8F8FA
:10254C0010404FF0080984E74FF0000981E74FF085
:10255C0004097EE708F104007EE7A5F10802920069
:10256C007DE7032300E000238B4003430232424902
:10257C0041F82230736813F4803F00F083803F4AA7
:10258C0013683B431360736813F4003F00F08080C2
:10259C003A4A53683B435360736813F4801F7DD0F1
:1025AC00364A93683B439360736813F4001F7BD0E7
:1025BC00324AD3681F43D76001350F2D7AD80124D6
:1025CC00AC40336803EA040734EA0303F4D1244B28
:1025DC00984513D003F5806398450FD003F58063BD
:1025EC0098450BD003F58063984507D003F58063BD
:1025FC00984503D0DD211B48FEF768FD7368122B4C
:10260C003FF601AF122B3FF624AF01A252F823F094
:10261C003B240008D92400080B2500085525000888
:10262C005F2400085F2400085F2400085F24000872
:10263C005F2400085F2400085F2400085F24000862
:10264C005F2400085F2400085F2400085F24000852
:10265C005F240008F124000825250008012383E7E6
:10266C00000801400C32010800001110000022107B
:10267C000000311000100240000001400004014035
:10268C00022371E70D4A136823EA070313607AE704
:10269C000A4A536823EA070353607DE7074A9368A5
:1026AC0023EA070393607FE7044AD36823EA07070A
:1026BC00D76081E703B0BDE8F08300BF00040140A0
:1026CC0070B5054614460E4621B1012C08D86CB1E4
:1026DC002E6170BD40F2E3110648FEF7F7FCF4E7FB
:1026EC004FF4F2710348FEF7F1FCF0E736042E616B
:1026FC00EFE700BF0C32010838B504460D4619B19E
:10270C00E3685D40E56038BD40F2F9110148FEF721
:10271C00DDFCF5E70C32010870B4066CC56B0124C6
:10272C00B4406C60046863604368102B05D0036888
:10273C0099600368DA6070BC704703689A6003683C
:10274C00D960F8E7002800F09D8010B504460368B6
:10275C004D4A934215D01432934212D01432934204
:10276C000FD0143293420CD01432934209D014324D
:10277C00934206D01432934203D0AA214348FEF769
:10278C00A5FC636823B1102B02D0B3F5804F56D152
:10279C00A368402B01D0002B56D1E368802B01D0CD
:1027AC00002B56D123692BB1B3F5807F02D0B3F542
:1027BC00007F53D163692BB1B3F5806F02D0B3F5B1
:1027CC00006F50D1A3690BB1202B51D1E36943B1F8
:1027DC00B3F5805F05D0B3F5005F02D0B3F5405F71
:1027EC004BD122682A4B13442A49A1FB03131B0922
:1027FC009B002364284BE363022384F82130116887
:10280C0021F47F5121F030016368A0680343E06834
:10281C0003432069034360690343A0690343E069F0
:10282C0003430B4313600020A062E06220636063EB
:10283C00A063012384F8213084F8200010BDAB2163
:10284C001248FEF743FCA3E7AC211048FEF73EFC10
:10285C00A3E7AD210D48FEF739FCA3E7AE210B48E9
:10286C00FEF734FCA6E7AF210848FEF72FFCA9E7DA
:10287C00B0210648FEF72AFCA8E7B1210348FEF771
:10288C0025FCAEE7012070470800024044320108E5
:10289C00F8FFFDBFCDCCCCCC00000240F8B504460F
:1028AC000E4617461D46581E4FF6FE7398420FD81B
:1028BC0094F82030012B3AD0012384F8203094F87E
:1028CC002130012B0AD0002384F820300220F8BDDF
:1028DC004FF4C0711748FEF7F9FBE9E7022384F8BF
:1028EC0021300023A3632268136823F001031360D3
:1028FC002B463A4631462046FFF70EFFE36A5BB1A2
:10290C002268136843F00E0313602268136843F0C7
:10291C00010313600020DAE72268136823F0040334
:10292C0013602268136843F00A031360EDE702207A
:10293C00CDE700BF4432010808B590F82130022BD6
:10294C0003D004238363012008BD0268136823F0BD
:10295C000E0313600268136823F00103136003680D
:10296C00194A934214D0143293421FD0143293421A
:10297C001ED0143293421ED0143293421ED0143205
:10298C00934202D04FF0807203E04FF4801200E0CB
:10299C0001220E4B5A60012380F82130002380F86D
:1029AC002030436B6BB198470020CDE71022F0E745
:1029BC004FF48072EDE74FF48052EAE74FF4803227
:1029CC00E7E70020C0E700BF08000240000002401B
:1029DC0038B5C36B1A6804682568016C04238B40F6
:1029EC00134235D015F0040F32D0236813F0200FAA
:1029FC0003D1236823F0040323600368434A934202
:102A0C0014D01432934218D01432934217D014328B
:102A1C00934217D01432934217D01432934202D0FF
:102A2C004FF0806203E04FF4800200E00422384B48
:102A3C005A60C36A03B1984738BD4022F7E74FF498
:102A4C008062F4E74FF48042F1E74FF48022EEE726
:102A5C0002238B4013423CD015F0020F39D023686F
:102A6C0013F0200F06D1236823F00A0323600123FF
:102A7C0080F821300368254A934214D014329342D3
:102A8C001CD0143293421BD0143293421BD01432FC
:102A9C0093421BD01432934202D04FF0007203E0E9
:102AAC004FF4001200E00222194B5A60002380F808
:102ABC002030836A002BBFD09847BDE72022F3E774
:102ACC004FF40072F0E74FF40052EDE74FF4003290
:102ADC00EAE7082303FA01F11142ADD015F0080F13
:102AEC00AAD0236823F00E032360026CC16B012370
:102AFC0003FA02F24A60836380F82130002380F8E5
:102B0C002030036B002B97D0984795E708000240C4
:102B1C000000024010B50446C31E042B0FD80A4A0D
:102B2C00D36823F4E0631B041B0C240204F4E0645C
:102B3C00234343F0BF6343F40033D36010BDA221A1
:102B4C000248FEF7C3FAEAE700ED00E07C32010828
:102B5C0070B505460C4616460F2A25D80F2C28D8DA
:102B6C001B4BDB68C3F30223C3F10701042928BF05
:102B7C0004211A1D062A21D9033B4FF0FF3202FA19
:102B8C0001F124EA01049C4002FA03F326EA03064D
:102B9C003443002D14DB2401E4B205F1604505F546
:102BAC00614585F8004370BDBA210A48FEF78EFADC
:102BBC00D4E7BB210748FEF789FAD1E70023DCE70D
:102BCC0005F00F052401E4B2034B5C55EBE700BFA5
:102BDC0000ED00E07C32010814ED00E010B5041E9D
:102BEC0008DB04F01F02640901239340044A42F8F5
:102BFC00243010BDCE210348FEF768FAF1E700BF80
:102C0C0000E100E07C3201080138B0F1807F0AD28B
:102C1C00064B5860064AF02182F823100020986079
:102C2C0007221A6070470120704700BF10E000E0D7
:102C3C0000ED00E010B50446042800D038B9042C8F
:102C4C000BD0094A136823F00403136010BD40F243
:102C5C00D9110648FEF73AFAF1E7034A136843F034
:102C6C0004031360F2E700BF10E000E07C320108BF
:102C7C00704708B5FFF7FCFF08BD00000F4B1A6842
:102C8C0042F001021A6059680D4A0A405A601A68EB
:102C9C0022F0847222F480321A601A6822F48022A4
:102CAC001A605A6822F4FE025A604FF41F029A60AE
:102CBC00044B4FF000629A60704700BF0010024056
:102CCC000000FFF800ED00E00FB430B583B006ABA8
:102CDC0053F8042B0193094D6C1CC8212046FDF7B9
:102CEC00ABFAC2B22A704FF0FF3321460448FEF70C
:102CFC00A9FC03B0BDE8304004B070479C20002014
:102D0C00DC4200202DE9F04F83B083468946924681
:102D1C009846BDF83070161AB6B20136B3B20193AC
:102D2C00A8EB0106B6B20136B6B2A54C00224FF4A0
:102D3C0000512046FFF7C4FC00224FF4804120468E
:102D4C00FFF7BEFC00224FF400412046FFF7B8FC11
:102D5C009C4DEB6803F47F4343F02A03EB600122A4
:102D6C004FF400412046FFF7ABFC01224FF48041A9
:102D7C002046FFF7A5FC00224FF400412046FFF748
:102D8C009FFCEB6803F47F4343EA1B23EB600122B7
:102D9C004FF400412046FFF793FC00224FF4004112
:102DAC002046FFF78DFCE86800F47F405FFA8BFB50
:102DBC0040EA0B00E86001224FF400412046FFF787
:102DCC007FFC00224FF400412046FFF779FCEB68B2
:102DDC0003F47F4343EA1A23EB6001224FF40041D2
:102DEC002046FFF76DFC00224FF400412046FFF710
:102DFC0067FCEA6802F47F425FFA8AFA42EA0A0246
:102E0C00EA6001224FF400412046FFF759FC0122F1
:102E1C004FF400512046FFF753FC00224FF40051B1
:102E2C002046FFF74DFC00224FF480412046FFF76F
:102E3C0047FC00224FF400412046FFF741FCEB68B1
:102E4C0003F47F4343F02B03EB6001224FF400416A
:102E5C002046FFF735FC01224FF480412046FFF756
:102E6C002FFC00224FF400412046FFF729FCEB68B1
:102E7C0003F47F4343EA1923EB6001224FF4004132
:102E8C002046FFF71DFC00224FF400412046FFF7BF
:102E9C0017FCE96801F47F415FFA89F941EA0901FD
:102EAC00E96001224FF400412046FFF709FC0022A3
:102EBC004FF400412046FFF703FCEB6803F47F431B
:102ECC0043EA1823EB6001224FF400412046FFF740
:102EDC00F7FB00224FF400412046FFF7F1FBEB68B3
:102EEC0003F47F435FFA88F843EA0803EB6001229E
:102EFC004FF400412046FFF7E3FB01224FF4005151
:102F0C002046FFF7DDFB00224FF400512046FFF76F
:102F1C00D7FB00224FF480412046FFF7D1FB002263
:102F2C004FF400412046FFF7CBFBEB6803F47F43E3
:102F3C0043F02C03EB6001224FF400412046FFF7D5
:102F4C00BFFB01224FF480412046FFF7B9FB019BE8
:102F5C0006FB03F64FF00008B04528D2184C0022AF
:102F6C004FF400412046FFF7ABFB164DEB6803F422
:102F7C007F4343EA1723EB6001224FF400412046C4
:102F8C00FFF79EFB00224FF400412046FFF798FB11
:102F9C00EB6803F47F43FAB21343EB6001224FF466
:102FAC0000412046FFF78CFB08F10108D4E7012211
:102FBC004FF400510248FFF783FB03B0BDE8F08FDC
:102FCC00000C0140000801402DE9F04184B0DFF80D
:102FDC0050800122FF214046FFF772FB0F4C01226B
:102FEC004FF478412046FFF76BFBFF23009301273A
:102FFC000197002602960225039569464046FFF785
:10300C00B1F94FF478430093019702960395694602
:10301C002046FFF7A7F904B0BDE8F081000C014091
:10302C000008014038B505464C4C00224FF40051C5
:10303C002046FFF745FB00224FF480412046FFF766
:10304C003FFB00224FF400412046FFF739FB444A76
:10305C00D36803F47F4343F03603D36001224FF46B
:10306C0000412046FFF72CFB01224FF48041204603
:10307C00FFF726FB032D5DD8DFE805F0021D324774
:10308C00364C00224FF400412046FFF719FB344A1E
:10309C00D36803F47F4343F04803D36001224FF419
:1030AC0000412046FFF70CFB01224FF400512B4846
:1030BC00FFF706FB38BD294C00224FF40041204697
:1030CC00FFF7FEFA264AD36803F47F4343F0280344
:1030DC00D36001224FF400412046FFF7F1FAE3E7F9
:1030EC001E4C00224FF400412046FFF7E9FA1C4A1F
:1030FC00D36803F47F4343F08803D36001224FF479
:10310C0000412046FFF7DCFACEE7144C00224FF4C6
:10311C0000412046FFF7D4FA114AD36803F47F43E9
:10312C0043F0E803D36001224FF400412046FFF73F
:10313C00C7FAB9E7094C00224FF400412046FFF7CB
:10314C00BFFA074AD36803F47F43D36001224FF4DC
:10315C0000412046FFF7B4FAA6E700BF000C01407F
:10316C000008014030B583B0FFF72EFFEB4C012275
:10317C004FF400512046FFF7A3FA01224FF480517F
:10318C002046FFF79DFA01224FF480412046FFF7BD
:10319C0097FA01224FF400412046FFF791FA0122E1
:1031AC004FF400612046FFF78BFADD4D4FF03333BF
:1031BC002B6000224FF480512046FFF781FA012248
:1031CC004FF480512046FFF77BFA00224FF4005158
:1031DC002046FFF775FA00224FF480412046FFF796
:1031EC006FFA00224FF400412046FFF769FAEB68B2
:1031FC0003F47F4343F00103EB6001224FF40041E1
:10320C002046FFF75DFA01224FF480412046FFF77C
:10321C0057FA01224FF400512046FFF751FA4FF4B0
:10322C007A70FEF765FC00224FF400512046FFF740
:10323C0047FA00224FF480412046FFF741FA002262
:10324C004FF400412046FFF73BFAEB6803F47F4351
:10325C0043F0C003EB6001224FF400412046FFF71E
:10326C002FFA01224FF480412046FFF729FA002261
:10327C004FF400412046FFF723FAEB6803F47F4339
:10328C0043F02503EB6001224FF400412046FFF789
:10329C0017FA00224FF480412046FFF711FA002262
:1032AC004FF400412046FFF70BFAEB6803F47F4321
:1032BC0043F0C103EB6001224FF400412046FFF7BD
:1032CC00FFF901224FF480412046FFF7F9F9002263
:1032DC004FF400412046FFF7F3F9EB6803F47F430A
:1032EC0043F01103EB6001224FF400412046FFF73D
:1032FC00E7F900224FF480412046FFF7E1F9002264
:10330C004FF400412046FFF7DBF9EB6803F47F43F1
:10331C0043F0C503EB6001224FF400412046FFF758
:10332C00CFF901224FF480412046FFF7C9F9002262
:10333C004FF400412046FFF7C3F9EB6803F47F43D9
:10334C0043F02B03EB6001224FF400412046FFF7C2
:10335C00B7F900224FF400412046FFF7B1F9EB68B2
:10336C0003F47F4343F02B03EB6001224FF4004145
:10337C002046FFF7A5F900224FF480412046FFF7C5
:10338C009FF900224FF400412046FFF799F9EB68B2
:10339C0003F47F4343F0C703EB6001224FF4004179
:1033AC002046FFF78DF901224FF480412046FFF7AC
:1033BC0087F900224FF400412046FFF781F9EB68B2
:1033CC0003F47F4343F08603EB6001224FF400418A
:1033DC002046FFF775F900224FF480412046FFF795
:1033EC006FF900224FF400412046FFF769F9EB68B2
:1033FC0003F47F4343F03A03EB6001224FF40041A6
:10340C002046FFF75DF901224FF480412046FFF77B
:10341C0057F900224FF400412046FFF751F9EB68B1
:10342C0003F47F4343F00503EB6001224FF40041AA
:10343C002046FFF745F900224FF480412046FFF764
:10344C003FF900224FF400412046FFF739F9EB68B1
:10345C0003F47F4343F0B103EB6001224FF40041CE
:10346C002046FFF72DF901224FF480412046FFF74B
:10347C0027F900224FF400412046FFF721F9EB68B1
:10348C0003F47F43EB6001224FF400412046FFF729
:10349C0017F900224FF400412046FFF711F9EB68B1
:1034AC0003F47F4343F01803EB6001224FF4004117
:1034BC002046FFF705F900224FF480412046FFF724
:1034CC00FFF800224FF400412046FFF7F9F8EB68B3
:1034DC0003F47F4343F0B603EB6001224FF4004149
:1034EC002046FFF7EDF801224FF480412046FFF70C
:1034FC00E7F800224FF400412046FFF7E1F8EB68B3
:10350C0003F47F4343F00A03EB6001224FF40041C4
:10351C002046FFF7D5F8002204E000BF000C014064
:10352C00000801404FF400412046FFF7C9F8EB6852
:10353C0003F47F4343F08203EB6001224FF400411C
:10354C002046FFF7BDF800224FF400412046FFF75C
:10355C00B7F8EB6803F47F4343F02703EB600122D9
:10356C004FF400412046FFF7ABF800224FF48041A6
:10357C002046FFF7A5F800224FF400412046FFF744
:10358C009FF8EB6803F47F4343F01103EB600122D7
:10359C004FF400412046FFF793F801224FF480418D
:1035AC002046FFF78DF801224FF400512046FFF71B
:1035BC0087F87820FEF79CFA0320FFF733FD0022F2
:1035CC004FF400512046FFF77BF800224FF4804166
:1035DC002046FFF775F800224FF400412046FFF714
:1035EC006FF8EB6803F47F4343F02903EB6001228F
:1035FC004FF400412046FFF763F801224FF480415D
:10360C002046FFF75DF801224FF400512046FFF7EA
:10361C0057F800200090EF2340F23F120146FFF7CD
:10362C0071FB03B030BD00BF2DE9F0410646884662
:10363C001746984C00224FF400512046FFF740F8F3
:10364C0000224FF480412046FFF73AF800224FF455
:10365C0000412046FFF734F88F4DEB6803F47F43AD
:10366C0043F02A03EB6001224FF400412046FFF7A0
:10367C0027F801224FF480412046FFF721F8002261
:10368C004FF400412046FFF71BF8EB6803F47F432F
:10369C0043EA1623EB6001224FF400412046FFF76A
:1036AC000FF800224FF400412046FFF709F8EB68B1
:1036BC0003F47F43F2B21343EB6001224FF4004159
:1036CC002046FEF7FDFF0736B6B200224FF400414C
:1036DC002046FEF7F5FFEB6803F47F4343EA16231D
:1036EC00EB6001224FF400412046FEF7E9FF002277
:1036FC004FF400412046FEF7E3FFEB6803F47F43F1
:10370C00F6B23343EB6001224FF400412046FEF742
:10371C00D7FF00224FF480412046FEF7D1FF002254
:10372C004FF400412046FEF7CBFFEB6803F47F43D8
:10373C0043F02B03EB6001224FF400412046FEF7CF
:10374C00BFFF01224FF480412046FEF7B9FF002253
:10375C004FF400412046FEF7B3FFEB6803F47F43C0
:10376C0043EA1823EB6001224FF400412046FEF798
:10377C00A7FF00224FF400412046FEF7A1FFEB68A3
:10378C0003F47F435FFA88F21343EB6001224FF49A
:10379C0000412046FEF794FF08F10706B6B200225E
:1037AC004FF400412046FEF78BFFEB6803F47F4398
:1037BC0043EA1623EB6001224FF400412046FEF74A
:1037CC007FFF00224FF400412046FEF779FFEB68A3
:1037DC0003F47F43F6B23343EB6001224FF4004114
:1037EC002046FEF76DFF00224FF480412046FEF785
:1037FC0067FF00224FF400412046FEF761FFEB68A3
:10380C0003F47F4343F02C03EB6001224FF400419F
:10381C002046FEF755FF01224FF480412046FEF76B
:10382C004FFF00242BE037F8028B1A4D00224FF487
:10383C0000412846FEF744FF174EF36803F47F431C
:10384C0043EA1823F36001224FF400412846FEF7A7
:10385C0037FF00224FF400412846FEF731FFF36892
:10386C0003F47F435FFA88F843EA0803F36001220C
:10387C004FF400412846FEF723FF0134A4B23F2C3D
:10388C00D1D901224FF400510248FEF719FFBDE8CF
:10389C00F08100BF000C0140000801402DE9F04709
:1038AC0082B080468A46174699460A9DAC4C002247
:1038BC004FF400512046FEF703FF00224FF48041E5
:1038CC002046FEF7FDFE00224FF400412046FEF795
:1038DC00F7FEA44EF36803F47F4343F02A03F3602E
:1038EC0001224FF400412046FEF7EAFE01224FF47C
:1038FC0080412046FEF7E4FE00224FF400412046B2
:10390C00FEF7DEFEF36803F47F4343EA1823F3600B
:10391C0001224FF400412046FEF7D2FE00224FF464
:10392C0000412046FEF7CCFEF36803F47F435FFAB8
:10393C0088F21343F36001224FF400412046FEF756
:10394C00BFFED0441FFA88F808F1FF381FFA88F838
:10395C0000224FF400412046FEF7B2FEF36803F458
:10396C007F4343EA1823F36001224FF400412046C1
:10397C00FEF7A6FE00224FF400412046FEF7A0FE03
:10398C00F36803F47F435FFA88F843EA0803F360B3
:10399C0001224FF400412046FEF792FE00224FF424
:1039AC0080412046FEF78CFE00224FF40041204659
:1039BC00FEF786FEF36803F47F4343F02B03F360BA
:1039CC0001224FF400412046FEF77AFE01224FF40B
:1039DC0080412046FEF774FE00224FF40041204641
:1039EC00FEF76EFEF36803F47F4343EA1723F3609C
:1039FC0001224FF400412046FEF762FE00224FF4F4
:103A0C0000412046FEF75CFEF36803F47F43FAB2F4
:103A1C001343F36001224FF400412046FEF750FEA1
:103A2C004F44BFB2013FBFB200224FF400412046C9
:103A3C00FEF746FEF36803F47F4343EA1723F36073
:103A4C0001224FF400412046FEF73AFE00224FF4CB
:103A5C0000412046FEF734FEF36803F47F43FFB2C7
:103A6C001F43F76001224FF400412046FEF728FE69
:103A7C0000224FF480412046FEF722FE00224FF434
:103A8C0000412046FEF71CFEF36803F47F4343F02D
:103A9C002E03F36001224FF400412046FEF710FE86
:103AAC0001224FF480412046FEF70AFE4FF0883386
:103ABC003360FF23336100224FF400612046FEF790
:103ACC00FFFDB36801224FF400612046FEF7F8FDBC
:103ADC004FF033333360BDF82C60760800242CE0B3
:103AEC00DFF87C8000224FF400614046FEF7E8FDD1
:103AFC001C4B9A6801ABDA5501224FF40061404629
:103B0C00FEF7DEFD0137022FEAD9164B4FF03332A8
:103B1C001A609DF80430DB08DB0225F814309DF8A0
:103B2C000520920843EA421325F814309DF806202C
:103B3C0043EAD20325F814300134A64207D9094BC5
:103B4C004FF088321A60FF221A610027DBE701224E
:103B5C004FF400510248FEF7B3FD02B0BDE8F08708
:103B6C00000C0140000801402DE9F04780468A46D0
:103B7C0017469946089C9D4D00224FF4005128464B
:103B8C00FEF79EFD00224FF480412846FEF798FD7B
:103B9C0000224FF400412846FEF792FD944EF36844
:103BAC0003F47F4343F02A03F36001224FF40041F6
:103BBC002846FEF785FD01224FF480412846FEF78A
:103BCC007FFD00224FF400412846FEF779FDF36893
:103BDC0003F47F4343EA1823F36001224FF40041BE
:103BEC002846FEF76DFD00224FF400412846FEF7F3
:103BFC0067FDF36803F47F435FFA88F21343F360C5
:103C0C0001224FF400412846FEF75AFDD0441FFA1A
:103C1C0088F808F1FF381FFA88F800224FF40041A9
:103C2C002846FEF74DFDF36803F47F4343EA18235F
:103C3C00F36001224FF400412846FEF741FD0022BB
:103C4C004FF400412846FEF73BFDF36803F47F4335
:103C5C005FFA88F843EA0803F36001224FF400414D
:103C6C002846FEF72DFD00224FF480412846FEF732
:103C7C0027FD00224FF400412846FEF721FDF36892
:103C8C0003F47F4343F02B03F36001224FF4004114
:103C9C002846FEF715FD01224FF480412846FEF719
:103CAC000FFD00224FF400412846FEF709FDF36892
:103CBC0003F47F4343EA1723F36001224FF40041DE
:103CCC002846FEF7FDFC00224FF400412846FEF783
:103CDC00F7FCF36803F47F43FAB21343F360012259
:103CEC004FF400412846FEF7EBFC4F44BFB2013FB6
:103CFC00BFB200224FF400412846FEF7E1FCF36806
:103D0C0003F47F4343EA1723F36001224FF400418D
:103D1C002846FEF7D5FC00224FF400412846FEF75A
:103D2C00CFFCF36803F47F43FFB21F43F76001221B
:103D3C004FF400412846FEF7C3FC00224FF48041AB
:103D4C002846FEF7BDFC00224FF400412846FEF742
:103D5C00B7FCF36803F47F4343F02C03F3600122B8
:103D6C004FF400412846FEF7ABFC01224FF4804192
:103D7C002846FEF7A5FCBDF824305B085F1EBFB2D9
:103D8C005BB334F8028B194D00224FF400412846E6
:103D9C00FEF796FC164EF36803F47F4343EA1823B0
:103DAC00F36001224FF400412846FEF789FC002203
:103DBC004FF400412846FEF783FCF36803F47F437D
:103DCC005FFA88F843EA0803F36001224FF40041DC
:103DDC002846FEF775FC3B46D0E701224FF4005114
:103DEC000248FEF76DFCBDE8F08700BF000C0140F7
:103DFC00000801402DE9F047824689461646984650
:103E0C00BDF820709A4C00224FF400512046FEF76A
:103E1C0057FC00224FF480412046FEF751FC002253
:103E2C004FF400412046FEF74BFC924DEB6803F437
:103E3C007F4343F02A03EB6001224FF400412046FC
:103E4C00FEF73EFC01224FF480412046FEF738FC81
:103E5C0000224FF400412046FEF732FCEB6803F4DD
:103E6C007F4343EA1A23EB6001224FF400412046C2
:103E7C00FEF726FC00224FF400412046FEF720FC02
:103E8C00EB6803F47F435FFA8AF21343EB60012281
:103E9C004FF400412046FEF713FCCA441FFA8AFA7D
:103EAC000AF1FF3A1FFA8AFA00224FF40041204629
:103EBC00FEF706FCEB6803F47F4343EA1A23EB603E
:103ECC0001224FF400412046FEF7FAFB00224FF48A
:103EDC0000412046FEF7F4FBEB6803F47F435FFAE6
:103EEC008AFA43EA0A03EB6001224FF400412046B0
:103EFC00FEF7E6FB00224FF480412046FEF7E0FB84
:103F0C0000224FF400412046FEF7DAFBEB6803F485
:103F1C007F4343F02B03EB6001224FF4004120461A
:103F2C00FEF7CEFB01224FF480412046FEF7C8FB82
:103F3C0000224FF400412046FEF7C2FBEB6803F46D
:103F4C007F4343EA1623EB6001224FF400412046E5
:103F5C00FEF7B6FB00224FF400412046FEF7B0FB03
:103F6C00EB6803F47F43F2B21343EB6001224FF48E
:103F7C0000412046FEF7A4FB4644B6B2013EB6B261
:103F8C0000224FF400412046FEF79AFBEB6803F445
:103F9C007F4343EA1623EB6001224FF40041204695
:103FAC00FEF78EFB00224FF400412046FEF788FB03
:103FBC00EB6803F47F43F6B21E43EE6001224FF42C
:103FCC0000412046FEF77CFB00224FF48041204646
:103FDC00FEF776FB00224FF400412046FEF770FB03
:103FEC00EB6803F47F4343F02C03EB6001224FF4A6
:103FFC0000412046FEF764FB01224FF4804120462D
:10400C00FEF75EFB002408FB09F39C4228DA184DEE
:10401C0000224FF400412846FEF752FB154EF36880
:10402C0003F47F4343EA1723F36001224FF400416A
:10403C002846FEF745FB00224FF400412846FEF7C8
:10404C003FFBF26802F47F42FBB21A43F26001229A
:10405C004FF400412846FEF733FB0134A4B2D2E7FB
:10406C0001224FF400510248FEF72AFBBDE8F0870D
:10407C00000C01400008014008B5FFF773F802F08E
:10408C0060F902F089FC084B084A1A60084A5A6029
:10409C00084A9A60084ADA60084A1A61084A5A6162
:1040AC00084802F09FF808BD7421002051630008F5
:1040BC00116500082D640008CD660008E56600084F
:1040CC00396700088C21002038B5144D144C296830
:1040DC002368144AC91A144802F019F923681844C1
:1040EC0020602B68984207DAFDF7FCFC0F4B1B682D
:1040FC00C01A63280BD838BD03F5883303F58073D9
:10410C002B60084AFF21084802F0C7F8ECE702F0E0
:10411C00B1FBFDF7E7FC054B1860ECE768210020CC
:10412C0070210020742100208C2100206C210020A3
:10413C00004870478C2100202DE9F04F87B00546D0
:10414C000C4616460293DDF84090D0F824A0076A7E
:10415C0007F07F07D34619E05646A24600F0070346
:10416C00019951F82320C0F3C20451F8243012787D
:10417C001A70029B9E4282F21B80D9F800301FFA03
:10418C008BF0984704460BF1010B574605F13408A8
:10419C00CDF804802046DB4B1B5C06F1040A7C1C2A
:1041AC007A2B02F2018001A252F823F0654100083B
:1041BC00A5430008C5430008194400086D440008D5
:1041CC00C3440008D3440008E3440008FF4400083B
:1041DC0015450008254500084145000873450008B1
:1041EC008B450008AD450008CD450008F745000893
:1041FC0017460008414600084F4600087346000861
:10420C0095460008A3460008B1460008CF460008B2
:10421C00F146000853470008E94700085F480008CA
:10422C00F74800082F4900086B490008CB490008E3
:10423C000D4A0008554A0008BF4A0008094B0008FF
:10424C004F4B0008B74B0008014C0008514C0008BC
:10425C00C34C0008E74C00080D4D0008E34D000866
:10426C00034E0008354E0008574D0008774D0008E6
:10427C009B4D00087D4E0008C74E0008154F0008E6
:10428C00854F0008C14F00085F500008A35000087C
:10429C00C35200080353000851530008A7530008E9
:1042AC00C153000847510008BD510008E1510008F6
:1042BC00155200083F520008B56100085F52000813
:1042CC0073520008875200089B520008DB53000809
:1042DC00FD530008235400084D540008775400087F
:1042EC00AD540008395500086B550008FF550008FF
:1042FC002D560008BD560008ED56000885570008DD
:10430C00B15700083558000861580008F9580008E2
:10431C0027590008B3590008DD590008655A0008F0
:10432C00BF5A0008095B0008715B0008935B00082A
:10433C00135C0008375C0008BF5C0008D35C000805
:10434C00055D00081D5D0008575D0008675D0008ED
:10435C00935D0008BD5D0008095E0008215E000841
:10436C005B5E0008775E00089D5E0008BD5E00087D
:10437C00F75E0008655F000805600008256000080E
:10438C0051600008B56000083B61000869610008D5
:10439C00856100089B610008A246D9F80030C0F383
:1043AC00C204019A52F824401FFA8BF098472070EF
:1043BC000BF1010B0736DCE6A2460446019B434594
:1043CC0018D0D9F800301FFA8BF0984743B20BF194
:1043DC00010B019A926910881844D9F80020C4F393
:1043EC00C2030C3305EB83035C6880B290472070EA
:1043FC000F36BEE6D9F80030C0F3C204019A52F869
:10440C0024402889984720700736B2E6A246044615
:10441C00019B434518D0D9F800301FFA8BF0984710
:10442C0043B20BF1010B019A926910881844D9F828
:10443C00082004F007030C3305EB83035B68197841
:10444C0080B290470F3694E6D9F8083000F0070494
:10445C00019A52F82420117828899847073688E663
:10446C00A246019B434518D0D9F800301FFA8BF0B7
:10447C00984743B20BF10100019A926914881C44CD
:10448C00D9F8003080B2984701460BF1020BD9F8ED
:10449C000830A0B298470F366BE6D9F800301FFAF7
:1044AC008BF0984701460BF1010BD9F8083028899D
:1044BC0098470A365DE6A246D9F80030A888984796
:1044CC00E872073655E6A246D9F80030E8889847D6
:1044DC00E87207364DE6A246D9F804301FFA8BF085
:1044EC0098470BF1020BD9F800309847E8720D365B
:1044FC003FE6A246D9F80830E97AA88898470736EB
:10450C0037E600BFEC340108A246D9F80830E97A46
:10451C00E888984707362CE6A246D9F804301FFAEB
:10452C008BF098470BF1020BD9F80830E97A9847D1
:10453C000D361EE6A246572813D02B6A03F08003D3
:10454C000AF07F021A43A44B9B5CE96A43EA81019F
:10455C00AB7A03F001030B4343EA02236B8105366C
:10456C0007E6EA69EFE7A246472805D0EB7A2B620B
:10457C0003F07F0A0536FCE5EB7AEB61FAE7A2461D
:10458C00D9F80420C0F301130833019951F82340E2
:10459C001FFA8BF0904720800BF1020B0A36E8E5EE
:1045AC00A246D9F804301FFA8BF098470BF1020B96
:1045BC00D9F80430019A9469984720801036D8E5D0
:1045CC00A2460446D9F804301FFA8BF098470BF139
:1045DC00020BD9F80420C4F301130833019951F8E4
:1045EC002340904720801036C3E5A246D9F804300A
:1045FC001FFA8BF098470BF1020BD9F80C30019A8B
:10460C009269118898471036B3E5A2460446D9F84A
:10461C0004301FFA8BF098470BF1020BD9F80C20E1
:10462C00C4F301130833019951F8233019889047CA
:10463C0010369EE5A246019B9B691B882B82063691
:10464C0097E5A2460446288A023880B22882D9F817
:10465C000C30C4F301120C32019951F8222011884C
:10466C0098470B3685E5A246D9F80420C0F3011310
:10467C000C33019951F82340288A904720800A3640
:10468C002B8A02332B8274E55646A246EB882A8984
:10469C00EA802B816DE55646A2466B892A8B6A818E
:1046AC002B8366E55646A246AB886A8AAA806B8243
:1046BC00EB88AA8AEA80AB822B89EA8A2A81EB8270
:1046CC0057E5A246D9F80430288A98470446D9F809
:1046DC000C30019FBA691188288A9847BB691C80E5
:1046EC00133646E5A2460446D9F800302889984787
:1046FC000746D9F808300146E8889847A97A01F0AE
:10470C00C101AB88013B9BB2AB80C3B10422114306
:10471C00EB7A3B4403F008020A431B0103F020032D
:10472C001343AB72A02C0CD04FF0FF339BB2EA8832
:10473C001A44EA802A8913442B810C3619E500228D
:10474C00E5E70123F2E7B0283FD04FF0FF331A46DC
:10475C00AB7A03F0C10305930393AB880193B5F8CF
:10476C0006802C8907F1FF3A043E17460AF1020A2B
:10477C00D9F80030A0B2984701460490D9F8083017
:10478C001FFA88F098473C44B844019B013B0193C5
:10479C001ED01536029BB342E8DC049F059B43F008
:1047AC0004030393ABF1020B2C81A5F80680019B4B
:1047BC00AB80EB7A1F4407F00803039A1A433B01C2
:1047CC0003F020031343AB72D3E401231A46BFE773
:1047DC00049F1036E8E700BF1C370108A2460446C8
:1047EC00EF7AD9F80030288998473A1A2B89A12CEE
:1047FC002BD04FF6FF710B442B8187EA0003DBB201
:10480C00534003F01000C3F30013D31A190101F045
:10481C002001014303F008030B43D2B2B5498A5C73
:10482C0002F0C0021A43AB88013B9BB2AB8073B160
:10483C000423134343F002035BB295F90A2002F000
:10484C0001021343AB720C3693E40121D3E700232E
:10485C00EFE7B12844D04FF0FF330193EB7A039389
:10486C00AC88B5F8088007F1FF3A043E1F460AF100
:10487C00020AD9F800301FFA88F098473A1A019BBF
:10488C009844013C2FD072B31536029BB342EEDC38
:10489C00ABF1020BA5F80880AC80039B4340DBB264
:1048AC00534003F01000C3F30013D31A190101F0A5
:1048BC002001014303F008030B43D2B28D498A5CFB
:1048CC0002F0C002134304B10424234343F0020357
:1048DC005BB295F90A2002F001021343AB7248E473
:1048EC0001230193BAE71036D4E75646A246EB7A79
:1048FC0000F00704019A52F824201178CA184B4092
:10490C00534003F01000D1B27A4C615C0143DB11CF
:10491C00794850F823300B4343EA2223EA72AB72F6
:10492C0027E4A246D9F800301FFA8BF098470BF118
:10493C00010B0736EB7AC2184340DBB2534003F04D
:10494C001000D1B26B4C615C0143DB116A4850F82A
:10495C0023300B4343EA2223EA72AB7209E4A246EA
:10496C00019B434525D0D9F800301FFA8BF09847AE
:10497C0043B20BF1010B019A926910881844D9F8D3
:10498C00003080B298470F36EB7AC2184340534040
:10499C0003F01000D1B2574C615C0143DB11564857
:1049AC0050F823300B4343EA2223EA72AB72FFF731
:1049BC00E0BBD9F80030288998470736E4E756461B
:1049CC00A246EB7A00F00704019A52F824201178E1
:1049DC00C818AA7A02F0010202444B40534003F07B
:1049EC001000D1B2434C615C0143DB11424850F8DA
:1049FC0023300B4343EA2223EA72AB72FFF7B9BBB5
:104A0C00A246D9F800301FFA8BF098470BF1010B36
:104A1C000736E97A4218AB7A03F001031A4480EAAC
:104A2C000103DBB2534003F01000D1B2314C615C96
:104A3C000143DB11304850F823300B4343EA222367
:104A4C00EA72AB72FFF795BBA246019B43452AD095
:104A5C00D9F800301FFA8BF0984743B20BF1010BD9
:104A6C00019A926910881844D9F8003080B298479E
:104A7C000F36E97A4218AB7A03F001031A4480EA44
:104A8C000103534003F01000D1B21A4C615C014396
:104A9C00DB11194850F823300B4343EA2223EA7206
:104AAC00AB72FFF766BBD9F80030288998470736F8
:104ABC00DFE75646A246EB7A00F00704019A52F85B
:104ACC00242011785A1A4B40534003F0100040F048
:104ADC000200D1B2074C615C0843C3F3C114064910
:104AEC0051F824100143C3F300230B43EA72AB7259
:104AFC00FFF73FBB1C370108EC350108A246D9F87B
:104B0C0000301FFA8BF098470BF1010B0736EB7A4C
:104B1C001A1A4340DBB2534003F0100040F002007D
:104B2C00D1B2BE4C615C0843C3F3C114BC4951F80B
:104B3C0024100143C3F300230B43EA72AB72FFF75B
:104B4C0018BBA246019B434529D0D9F800301FFA67
:104B5C008BF0984743B20BF1010B019A92691088C4
:104B6C001844D9F8003080B298470F36EB7A1A1AED
:104B7C004340534003F0100040F00200D1B2A74C68
:104B8C00615C0843C3F3C114A54951F824100143D7
:104B9C00C3F300230B43EA72AB72FFF7EABAD9F8FE
:104BAC000030288998470736E0E75646A246EB7A4C
:104BBC0000F00704019A52F824201178581AAA7AA6
:104BCC0002F00102821A4B40534003F0100040F0F7
:104BDC000200D1B2914C615C0843C3F3C1149049FB
:104BEC0051F824100143C3F300230B43EA72AB7258
:104BFC00FFF7BFBAA246D9F800301FFA8BF09847DE
:104C0C000BF1010B0736E97A0A1AAB7A03F00103B0
:104C1C00D21A80EA0103DBB2534003F0100040F0DB
:104C2C000200D1B27D4C615C0843C3F3C1147C49D2
:104C3C0051F824100143C3F300230B43EA72AB7207
:104C4C00FFF797BAA246019B43452ED0D9F8003006
:104C5C001FFA8BF0984743B20BF1010B019A926942
:104C6C0010881844D9F8003080B298470F36E97A8A
:104C7C000A1AAB7A03F00103D21A80EA01035340FB
:104C8C0003F0100040F00200D1B2644C615C0843A8
:104C9C00C3F3C114624951F824100143C3F3002338
:104CAC000B43EA72AB72FFF764BAD9F8003028896B
:104CBC0098470736DBE75646A24600F00704019BEF
:104CCC0053F824301B78EA7A1340EB72554AD35CC4
:104CDC0043F01003AB72FFF74CBAA246D9F8003080
:104CEC001FFA8BF098470BF1010B0736EB7A034058
:104CFC00EB724C4AD35C43F01003AB72FFF739BA3A
:104D0C00A246019B43451AD0D9F800301FFA8BF00C
:104D1C00984743B20BF1010B019A92691088184421
:104D2C00D9F8003080B298470F36EB7A0340EB721B
:104D3C003C4AD35C43F01003AB72FFF71ABAD9F8B4
:104D4C000030288998470736EFE75646A24600F010
:104D5C000704019B53F824301B78EA7A1343EB7257
:104D6C00304AD35CAB72FFF704BAA246D9F80030D4
:104D7C001FFA8BF098470BF1010B0736EB7A0343C4
:104D8C00DBB2EB72274AD35CAB72FFF7F2B9A246E7
:104D9C00019B434519D0D9F800301FFA8BF0984786
:104DAC0043B20BF1010B019A926910881844D9F89F
:104DBC00003080B298470F36EB7A0343DBB2EB72CC
:104DCC00184AD35CAB72FFF7D4B9D9F800302889F4
:104DDC0098470736F0E75646A24600F00704019BB9
:104DEC0053F824301B78EA7A5340EB720D4AD35CAB
:104DFC00AB72FFF7BEB9A246D9F800301FFA8BF0A0
:104E0C0098470BF1010B0736EB7A4340DBB2EB72A0
:104E1C00044AD35CAB72FFF7ACB900BF1C37010876
:104E2C00EC3501081C360108A246019B434519D0FC
:104E3C00D9F800301FFA8BF0984743B20BF1010BF5
:104E4C00019A926910881844D9F8003080B29847BA
:104E5C000F36EB7A4340DBB2EB72BE4AD35CAB72DB
:104E6C00FFF787B9D9F80030288998470736F0E75B
:104E7C005646A246EB7A00F00704019A52F8242019
:104E8C001278991A53404B4003F0100040F0020086
:104E9C00C9B2B14C615C01F0C001014302F02802BF
:104EAC000A43C3F3C110AD4951F820100A43C3F3B0
:104EBC0000231343AB72FFF75CB9A246D9F800305C
:104ECC001FFA8BF098470BF1010B0736EB7A1A1A85
:104EDC004340DBB2534003F0100141F00204D2B264
:104EEC009D49895C01F0C001214300F028020A436E
:104EFC00C3F3C110994951F820100A43C3F300239E
:104F0C001343AB72FFF735B9A246019B43452DD035
:104F1C00D9F800301FFA8BF0984743B20BF1010B14
:104F2C00019A926910881844D9F8003080B29847D9
:104F3C000F36EB7A1A1A4340534003F0100141F03C
:104F4C000204D2B28449895C01F0C001214300F013
:104F5C0028020A43C3F3C110804951F820100A43B8
:104F6C00C3F300231343AB72FFF703B9D9F8003036
:104F7C00288998470736DCE75746A246C0F3C20497
:104F8C00019B53F8240003785A1C5340AC7A04F06C
:104F9C00010403F010010C43D1B26F4E715C21433C
:104FAC00DB096E4C54F823300B430270AB723E4657
:104FBC00FFF7DFB8A246019B43452BD0D9F8003050
:104FCC001FFA8BF0984743B20BF1010B019A9269CF
:104FDC0014881C44D9F80030A4B220469847411CD0
:104FEC0080EA0103A87A00F0010003F010021043DC
:104FFC00C9B2594A525C0243C3F3C113574850F823
:10500C0023301343AB72D9F8083020469847133637
:10501C00FFF7AFB8D9F80030288998470346411CF0
:10502C004B40A87A00F0010003F010021043C9B203
:10503C00494A525C0243C3F3C113484850F8233029
:10504C001343AB72D9F80830288998470B36FFF711
:10505C0090B85746A246C0F3C204019B53F82400F3
:10506C000378591E83EA0102AB7A03F0010343F083
:10507C00020302F010041C43CBB2374EF35C1C430A
:10508C00C2F3C113354A52F8233023430170AB727B
:10509C003E46FFF76EB8A246019B43452CD0D9F88B
:1050AC0000301FFA8BF0984743B20BF1010B019AB9
:1050BC00926914881C44D9F80030A4B22046984751
:1050CC00411E4840AB7A03F0010343F0020300F0A9
:1050DC0010021A43C9B2204B5B5C1A43C0F3C113D4
:1050EC001E4850F823301343AB72D9F808302046D1
:1050FC0098471336FFF73DB8D9F800302889984700
:10510C000346411E4B40AA7A02F0010242F0020211
:10511C0003F010001043C9B20F4A525C0243C3F3B0
:10512C00C1130E4850F823301343AB72D9F8083032
:10513C00288998470B36FFF71CB85746A246E87AE1
:10514C0099280DDCAB7A13F0010F2CD060230121D0
:10515C0008E000BF1C3601081C370108EC350108BB
:10516C006023012100F00F02092A03D8AA7A12F059
:10517C00100F00D00633AA7A12F0020F16D05B4241
:10518C00DBB20344DBB2EB72C24CE4565BB243407D
:10519C0003F01003234302F0020213431943A972D4
:1051AC003E46FEF7E6BF00231946DBE7DBB2E8E735
:1051BC005646A246EB7ADB43DBB2EB7295F90A203A
:1051CC0022F03A0203F02803134343F01203AB72AC
:1051DC00FEF7CFBF5646A246EB7A594283EA01024C
:1051EC0002F0100040F00200CBB2AB4CE35C184371
:1051FC00C2F3C114A94B53F82430034343EAD273CE
:10520C00E972AB72FEF7B5BF5646A246AB7A03F015
:10521C0001025BB223F03B0343EA021395F90B1036
:10522C0001F028010B4382F001021343AB72FEF72D
:10523C00A0BF5646A24695F90A3023F03B0395F9D8
:10524C000B2002F02802134343F00103AB72FEF76C
:10525C0090BF5346DA46A346029A9A4200DC029368
:10526C00029E00F0A8BF5646A2460023EB62AB623A
:10527C00029B04330293FEF77CBF5646A2460123E1
:10528C00EB62AB62029B04330293FEF772BF56468D
:10529C00A24610F0100F03D100232B63FEF769BF59
:1052AC0010F0080F03D101232B63FEF762BF02231A
:1052BC002B63FEF75EBFA246019B99690A88C0F377
:1052CC000110083053F820301B88D418534083EA5F
:1052DC000402A87A00F0C400231203F02803184338
:1052EC00131203F01003034343EA22430C80AB7206
:1052FC000B36FEF73EBFA2462B89C0F301120832D3
:10530C00019951F8222011885818AA7A02F001024A
:10531C0002444B40534091B219B1111201F0A80054
:10532C0000E04020191201F010010143DB135B482F
:10533C0050F823300B4343EA22432A81AB720B36DD
:10534C00FEF717BFA2462B89C0F301120832019950
:10535C0051F822201088191AAA7A02F00102891A2F
:10536C0043404B408AB21AB10A1202F0A80200E084
:10537C00402242F002001A1202F010020243C3F360
:10538C00C134464850F824000243C3F3004313438E
:10539C002981AB720B36FEF7ECBEA246C0F30113AB
:1053AC000833019A52F823201388013313800636F0
:1053BC00FEF7DFBEA246C0F301130833019A52F880
:1053CC0023201388013B13800636FEF7D2BE5646C7
:1053DC00A246EA7AD30943EA4203EB7295F90A2012
:1053EC0022F03B0203F029031343AB72FEF7C1BE5C
:1053FC005646A246E87A4100AB7A03F0C40201F0AB
:10540C002804224342EAD01203F001030B43EB724F
:10541C00AA72FEF7AEBE5646A246E97A4A0842EA9E
:10542C00C112EA7295F90A3023F03B0302F028020C
:10543C0013435BB201F001010B43AB72FEF799BE53
:10544C005646A246E97AAB7A4A0842EAC312EA7295
:10545C005BB223F03B0302F0280213435BB201F072
:10546C0001010B43AB72FEF784BE5646A24600F018
:10547C000704019850F824100A78D30943EA420231
:10548C000A7050F82420127802498A561343AB72E2
:10549C00FEF76FBE1C3601081C370108EC350108FD
:1054AC00A2460446019B43452CD0D9F800301FFA84
:1054BC008BF098474FFA80F8019B9B691B889844A6
:1054CC00D9F800301FFA88F840469847470047EA59
:1054DC00E017FFB2B24BDB5743EAE010A872D9F8E1
:1054EC00083039464046984704F00703062B04D091
:1054FC001C46019B53F824301F700BF1020B0F3626
:10550C00FEF737BED9F8003028899847410041EAA8
:10551C00E011C9B2A24B5B5643EAE010A872D9F86D
:10552C000830288998470B36FEF723BE5646A2460C
:10553C0000F00704019850F82420117895F90A30EE
:10554C0003F0010343EA4103137050F824301B7835
:10555C00934AD35643EAD113AB72FEF70ABEA24666
:10556C000446019B43452ED0D9F800301FFA8BF02E
:10557C0098474FFA80F8019B9B691B889844D9F88F
:10558C0000301FFA88F840469847AF7A07F00107B9
:10559C0047EA4007FFB2824BDB5743EAE010A872A0
:1055AC00D9F8083039464046984704F00703062BD3
:1055BC0004D01C46019B53F824301F700BF1020BD6
:1055CC000F36FEF7D6BDD9F8003028899847A97A4E
:1055DC0001F0010141EA4001C9B2714B5B5643EA4B
:1055EC00E010A872D9F80830288998470B36FEF7D6
:1055FC00C0BD5646A24600F00704019850F824207E
:10560C00137803F001015B0843EAC113137050F8DF
:10561C0024301B78624AD3560B43AB72FEF7A9BDFC
:10562C00A2460446019B43452DD0D9F800301FFA01
:10563C008BF098474FFA80F8019B9B691B88984424
:10564C00D9F800301FFA88F84046984700F001025C
:10565C00D70147EA6000C7B2514BDB571343AB721B
:10566C00D9F8083039464046984704F00703062B12
:10567C0004D01C46019B53F824301F700BF1020B15
:10568C000F36FEF776BDD9F800302889984700F020
:10569C000102D10141EA6001C9B2414B5B5613438F
:1056AC00AB72D9F80830288998470B36FEF761BDE4
:1056BC005646A24600F00704019F57F824100B78B9
:1056CC00A87A5A0842EAC0120A7057F824201278B5
:1056DC0033498A5603F001031343AB72FEF749BDFD
:1056EC00A2460446019B43452FD0D9F800301FFA3F
:1056FC008BF098474FFA80F8019B9B691B88984464
:10570C00D9F800301FFA88F840469847AF7AFF0165
:10571C00FFB247EA6007FFB2214BDB5700F00100F4
:10572C001843A872D9F8083039464046984704F017
:10573C000703062B04D01C46019B53F824301F7022
:10574C000BF1020B0F36FEF714BDD9F80030288987
:10575C009847A97AC901C9B241EA6001C9B2104B94
:10576C005B5600F001001843A872D9F8083028895C
:10577C0098470B36FEF7FDBC5646A24600F00704D0
:10578C00019850F824301A785100197050F82430D0
:10579C001B780349CB5643EAD213AB72FEF7E9BC34
:1057AC001C360108A2460446019B43452AD0D9F871
:1057BC0000301FFA8BF098474FFA80F8019B9B69D9
:1057CC001B889844D9F800301FFA88F8404698474F
:1057DC004700FFB2C84BDB5743EAE010A872D9F878
:1057EC00083039464046984704F00703062B04D08E
:1057FC001C46019B53F824301F700BF1020B0F3623
:10580C00FEF7B7BCD9F80030288998474100C9B2D7
:10581C00B94B5B5643EAE010A872D9F808302889D6
:10582C0098470B36FEF7A5BC5646A24600F0070477
:10583C00019850F8242011784B0043F001031370A9
:10584C0050F824301B78AC4AD35643EAD113AB72D0
:10585C00FEF78FBCA2460446019B43452FD0D9F8D6
:10586C0000301FFA8BF0984747B2019B9B691B884D
:10587C001F44D9F80030BFB238469847430043F074
:10588C000108DBB243F001039B4AD35643EAE01014
:10589C00A872D9F808305FFA88F84146384698471C
:1058AC0004F00703062B05D01C46019B53F824304B
:1058BC0083F800800BF1020B0F36FEF75ABCD9F8B7
:1058CC00003028899847430043F00101DBB243F0D4
:1058DC000103894AD35643EAE010A872D9F808307C
:1058EC00C9B2288998470B36FEF743BC5646A246E8
:1058FC0000F00704019B53F824100A7891F900007A
:10590C004010087053F824301B787B49CB5602F0BA
:10591C0001021343AB72FEF72CBCA2460446019B5A
:10592C0043452CD0D9F800301FFA8BF098474FFA2A
:10593C0080F8019B9B691B889844D9F800301FFAAA
:10594C0088F84046984740F34607FFB26A4BDB574E
:10595C0000F001001843A872D9F8083039464046C7
:10596C00984704F00703062B04D01C46019B53F800
:10597C0024301F700BF1020B0F36FEF7FABBD9F86F
:10598C0000302889984740F34601C9B25A4B5B5600
:10599C0000F001001843A872D9F8083028899847FC
:1059AC000B36FEF7E6BB5646A24600F007040198FC
:1059BC0050F8242013785908117050F824201278CC
:1059CC004D498A5603F001031343AB72FEF7D1BB6A
:1059DC00A2460446019B43452BD0D9F800301FFA50
:1059EC008BF098474FFA80F8019B9B691B88984471
:1059FC00D9F800301FFA88F840469847C0F347079B
:105A0C003D4BDB5700F001001843A872D9F8083061
:105A1C0039464046984704F00703062B04D01C4631
:105A2C00019B53F824301F700BF1020B0F36FEF75D
:105A3C00A0BBD9F8003028899847C0F347012E4BFA
:105A4C005B5600F001001843A872D9F80830288979
:105A5C0098470B36FEF78DBBA2460446D9F80030AA
:105A6C0028899847EB7A1A0202F470426F2C1BD0EB
:105A7C00010201F470611B01DBB20B4343EA2013FA
:105A8C0043EA0204D9F80820D9B228899047231296
:105A9C00EB72194AD35695F90A2002F0010213430E
:105AAC00AB720E36FEF765BB03F00F0343EA00132F
:105ABC00E6E75746A24600F00703019A52F8233056
:105ACC001A78C0F3C2040123A340134012D0002162
