:020000040800F2
:1000000000000220D95D0008591500085B150008A2
:100010005D1500085F15000861150008000000006C
:100020000000000000000000000000006315000850
:100030006515000800000000671500086915000834
:10004000295E0008295E0008295E0008295E000874
:10005000295E0008295E0008295E0008295E000864
:10006000295E0008295E0008295E0008295E000854
:10007000295E0008295E0008295E0008295E000844
:10008000295E0008295E0008295E0008295E000834
:10009000295E0008295E0008295E0008295E000824
:1000A000295E000871150008295E0008295E000815
:1000B000295E0008295E0008295E0008295E000804
:1000C000295E0008295E0008295E0008295E0008F4
:1000D000295E0008295E0008295E0008295E0008E4
:1000E000295E0008295E0008295E0008295E0008D4
:1000F000295E0008295E0008295E0008295E0008C4
:10010000295E0008295E0008295E0008295E0008B3
:10011000295E0008295E0008295E0008295E0008A3
:10012000295E0008295E000881150008295E000884
:10013000295E0008295E0008295E0008295E000883
:10014000295E0008295E0008295E0008295E000873
:10015000295E0008295E0008295E0008295E000863
:10016000295E0008295E0008295E0008295E000853
:10017000295E0008295E0008295E000800000000D2
:08018000295E0008295E000859
:100190000348044B834202D0034B03B11847704716
:1001A000B04E0020B04E0020000000000548064977
:1001B0000B1AD90F01EBA301491002D0034B03B175
:1001C00018477047B04E0020B04E002000000000DD
:1001D00010B5064C237843B9FFF7DAFF044B13B18F
:1001E0000448AFF300800123237010BDB04E0020FF
:1001F000000000002C5E000808B5044B1BB1044948
:100200000448AFF30080BDE80840CFE700000000DD
:10021000B44E00202C5E000870B50D4E0D4D761BBF
:10022000B61006D00024013455F8043B9847A64286
:10023000F9D1094E094D761B05F0F8FDB61006D030
:100240000024013455F8043B9847A642F9D170BD0B
:100250000094020800940208049402080094020822
:1002600070B5141E9AB005462BDB1A464FF4027384
:1002700000910491ADF80C3013D0013C4FF6FF769D
:100280001E9B029469460594ADF80E6000F008F9D3
:10029000421C01DA8B232B60009B00221A701AB0DB
:1002A00070BD1E9B02944FF6FF7669460594ADF82B
:1002B0000E6000F0F5F8431C01DA8B232B601AB0B6
:1002C00070BD8B2303604FF0FF30F8E710B5054C8D
:1002D00082B0009313460A4601462068FFF7C0FF2C
:1002E00002B010BD000000202DE9F0478E681D46C9
:1002F000AE420C460B68174636D88046888910F403
:10030000906F0ED1354618462A46394600F0D2FC89
:10031000A2682368961B2B44A66023600020BDE8DA
:10032000F087D1E9041606EB4606A3EB010906EBBC
:10033000D6766B1C76104B44B342324684BF1E46C1
:100340003246430512D51146404600F071FD824603
:1003500000B34A46216900F013FCA38923F490639B
:1003600043F08003A38106E02E46CCE7404600F030
:10037000C3FD824650B1A6EB09020AEB0903666190
:10038000C4F810A02360A2602E46BCE72169404655
:1003900000F0F8FC0C23C8F80030A38943F04003B8
:1003A000A3814FF0FF30BAE72DE9F04F936883B097
:1003B0009046002B6DD017688D6882460C46086801
:1003C000083743E0A38913F4906F2ED0D4E90415C5
:1003D00005EB4505A0EB010B05EBD5750BEB060016
:1003E0006D100130A8422A4684BF05462A465B05A7
:1003F00036D51146504600F01BFD00283AD05A462B
:100400002169019000F0BCFBA289019B22F490625B
:1004100042F08002A281A5EB0B0203EB0B006561A9
:1004200023612060A2603546B3465A46494600F033
:1004300041FCD8F80830A2682068551B58449E1B20
:10044000A5602060C8F808601EB3083757E9029617
:10045000AB46002EF9D0AE42B4D23546B346E4E7FF
:10046000504600F049FD03460028D4D1216950468A
:1004700000F088FC0C23CAF80030A389002243F066
:1004800040034FF0FF30A381C8E9012203B0BDE86B
:10049000F08F0020C8F8040003B0BDE8F08F00BF63
:1004A0002DE9F04F90468A899FB014068B46029042
:1004B00003D50A69002A00F00B81059330238DF8DB
:1004C000323098F800308E4E002120220B918DF8AA
:1004D00031200127002B00F08480252B00F0F680CE
:1004E000454603E0252B00F0868025466B786C1C82
:1004F000002BF7D1B4EB080A73D042465346594655
:100500000298FFF7F1FE01306BD00B9B6A785344E1
:100510000B93002A65D000234FF0FF32013406937D
:10052000CDE908338DF85B301C93079205E0069AFD
:1005300007FA03F313432C4606932546052215F8C4
:10054000011B304600F0CCFAAA46831B0028EED1EE
:10055000069BD90644BF20228DF85B2021781A071C
:1005600044BF2B228DF85B202A2948D1059A1168B7
:100570000432002905927EDB09916178A51C2E29A1
:1005800056D0604C0322204600F0AAFA002868D01A
:10059000001B069B402404FA00F00343069305F178
:1005A0000108297858488DF83010062200F098FA92
:1005B000002866D0554B002B56D005AB00935A4609
:1005C000534B029806A9AFF300808146B9F1FF3F73
:1005D00007D00B9B4B440B9398F80030002B7FF413
:1005E0007CAFBBF80C305B0654BF0B984FF0FF306C
:1005F0001FB0BDE8F08FB4EB080A8CD07DE7A1F105
:100600003002092A88BFA246B9D8099B01E02C46CE
:100610000135297803EB830302EB4303A1F1300298
:10062000092AAA46F3D92E2904F102050993A8D173
:100630009AF801102A292ED1059B9AF802101A68FF
:1006400007920433002A05930AF103050AF1020315
:1006500037DB2C4C032220469A4600F041FA002852
:1006600096D1A84655469CE7059B073323F0070320
:1006700008330593ADE7494243F00203099106931D
:100680007BE705AB00935A46214B029806A900F080
:10069000D7F881469AE7A1F130020023092A07938F
:1006A00001D923E05546697803EB830302EB43034A
:1006B000A1F13002092A05F1010AF3D902350793A5
:1006C0005FE74FF0FF329A4607925AE7444622E727
:1006D0004021039300F0ACFB039BCBF80000CBF868
:1006E000100030B14022CBF81420E6E6AA460135CE
:1006F00047E7029A0C2313604FF0FF3078E700BF02
:10070000BC930208C4930208C893020800000000CA
:10071000E90200082DE9F0470C4691460A6989680C
:10072000DDF820808A42B8BF0A46C9F8002094F854
:10073000431006461F4611B10132C9F80020236854
:1007400099065CD5D9F800200232C9F80020236848
:1007500013F0060F19461DD1E1688A1A002AD8BF86
:10076000194617DD04F1190A002505E0E368D9F8F8
:1007700000209B1AAB420CDD01235246394630461D
:10078000C047013005F10105F0D14FF0FF30BDE861
:10079000F087216894F84330003318BF01238A069C
:1007A0000AD5E1185A1C302081F84300224494F8FD
:1007B000451082F84310023304F1430239463046B3
:1007C000C0470130E1D02368A268216903F0060325
:1007D000042B1DD08A4226DD4FF00009521A9144A5
:1007E0001A34002501E04D451DDA01232246394621
:1007F0003046C047013005F10105F4D1C5E713F0DB
:10080000060F13D094F84330003318BF0123D3E709
:10081000D9F80000E3688A42A3EB000323EAE379F6
:10082000DCDC002BDCDC0020BDE8F087E168D9F8D7
:1008300000208A1A002AD8BF194693DCAAE700BF15
:100840002DE9F0430C46097E85B06E290646174611
:100850000C98984604F1430E6DD039D9732900F0F5
:10086000F68044D9752900F00481782940F011817F
:1008700078232268DFF858C284F8453001681506ED
:1008800051F8043B016040F1A180D10744BF42F020
:1008900020022260002B00F093801022002184F8B7
:1008A00043106068A0600028C0F2C880216821F071
:1008B00004012160002B40F0A380002840F0C0809C
:1008C0007546082A00F0AC80AEEB0503236141E0D9
:1008D000632900F0E5801AD8002938D0582940F063
:1008E000D88084F845102268DFF8E8C1C6E76F2990
:1008F00000F0BF80702940F0CC802268DFF8D0C1C2
:1009000042F020027823226084F84530B6E764295B
:1009100002D0692940F0BD8022680368110603F106
:10092000040557D5196805600B46002959DBDFF827
:10093000A4C10A22B5E70368226861691D1D05602C
:1009400015061B6802D4500600F1BD801960002313
:1009500075462361CDF800803B4603AA2146304608
:10096000FFF7D8FE013020D02A46236939463046A9
:10097000C047013019D022680398E368920719D55F
:100980001A1A002A16DD04F11909002504E0E368AB
:1009900003981A1AAA420DDD01234A463946304609
:1009A000C047013005F10105F1D14FF0FF3005B02E
:1009B000BDE8F0839842B8BF184605B0BDE8F083A3
:1009C000226822F020022260102267E7500648BF0A
:1009D0009BB25AE75106A5D5B3F900300560194618
:1009E000A3E76168A1602D200029C3F1000384F80A
:1009F000430002DB22F004022260DFF8D8C00A22A2
:100A0000754600E00B46B3FBF2F102FB1130934256
:100A10001CF8000005F8010DF4D2082A7FF454AF49
:100A20002368DB077FF550AF626823699A423FF77E
:100A30004BAF302305F8013C013D45E7002BDFD1EA
:100A40009CF8003084F8423004F1420539E703682D
:100A50006268191D01601D680021284600F040F8F9
:100A6000002832D0401B60602061002384F84330AE
:100A700070E72268036812F0800F03F104051AD0B2
:100A80001B6805606F290CBF08220A22DFF844C0EA
:100A900004E7012384F84210236104F14205E4E7EE
:100AA00003681A68191D0123016004F1420584F8E6
:100AB00042202361D9E712F0400F0DBF1B6805608B
:100AC0001B880560DEE7198041E76068CCE700BF5E
:100AD000E4930208D0930208000000000000000028
:100AE00001F0FF01102A2BDB10F0070F08D010F8DF
:100AF000013B013A8B422DD010F0070F42B3F6D1E3
:100B0000F0B441EA012141EA014122F007047FF0FB
:100B100000070023F0E80256083C85EA010586EA52
:100B2000010685FA47F5A3FA87F586FA47F6A5FA8E
:100B300087F68EB9EED1F0BC01F0FF0102F007029A
:100B400032B110F8013B013A83EA010313B1F8D145
:100B50000020704701387047002D06BF3546033826
:100B6000073815F0010F07D1013015F4807F02BF5F
:100B7000013015F4C03F0130F0BC0138704700BFB0
:100B8000844641EA000313F003036DD1403A41D398
:100B900051F8043B40F8043B51F8043B40F8043B57
:100BA00051F8043B40F8043B51F8043B40F8043B47
:100BB00051F8043B40F8043B51F8043B40F8043B37
:100BC00051F8043B40F8043B51F8043B40F8043B27
:100BD00051F8043B40F8043B51F8043B40F8043B17
:100BE00051F8043B40F8043B51F8043B40F8043B07
:100BF00051F8043B40F8043B51F8043B40F8043BF7
:100C000051F8043B40F8043B51F8043B40F8043BE6
:100C1000403ABDD2303211D351F8043B40F8043B86
:100C200051F8043B40F8043B51F8043B40F8043BC6
:100C300051F8043B40F8043B103AEDD20C3205D396
:100C400051F8043B40F8043B043AF9D2043208D08E
:100C5000D2071CBF11F8013B00F8013B01D30B8800
:100C600003806046704700BF082A13D38B078DD0DE
:100C700010F003038AD0C3F10403D21ADB071CBFB0
:100C800011F8013B00F8013B80D331F8023B20F81A
:100C9000023B7BE7043AD9D3013A11F8013B00F853
:100CA000013BF9D20B7803704B7843708B788370DB
:100CB000604670478842F0B40DD98B1883420AD938
:100CC000841832B1224613F8014D02F8014D9942C1
:100CD000F9D1F0BC70470F2A0ED80346541E002AE3
:100CE000F7D001340C44013B11F8012B03F8012F1C
:100CF000A142F9D1F0BC704740EA01039B073BD108
:100D0000A2F110073F0901F1200606EB071601F1D9
:100D1000100300F1100453F8105C44F8105C53F811
:100D20000C5C44F80C5C53F8085C44F8085C53F81D
:100D3000045C44F8045C1033B34204F11004EAD1BB
:100D40007B1C1B0112F00C0F194402F00F05034429
:100D500015D0043DAD0803EB850C1C1F0E4656F85C
:100D6000047B44F8047F6445F9D10135AD002B4480
:100D7000294402F00302B1E7541E0346B1E72A46B4
:100D8000ACE700BF00293CD038B551F8043C0C1F3B
:100D9000002BB8BFE418054600F0E6F8234B1A68AC
:100DA0002AB1A2420DD921686018824223D0626024
:100DB00028461C60BDE8384000F0D8B8A34203D8EC
:100DC0001A465368002BF9D111685018A04219D067
:100DD00024D821686018834206D063605460284696
:100DE000BDE8384000F0C2B8D3E9000301446360B5
:100DF00021605460F3E7D2E900020144626021609F
:100E0000D6E7704720680144501883421160E6D14C
:100E1000D3E90003014453601160E0E70C232B6029
:100E20002846BDE8384000F0A1B800BFCC4E0020F5
:100E3000F8B5CD1C25F0030508350C2D38BF0C2561
:100E4000002D064633DBA94231D82A4F00F08CF83A
:100E50003A6852B113685B1B04D43FE023685B1B04
:100E600029D522465468002CF8D1796800293BD056
:100E70002946304600F066F8431C28D0C41C24F0F4
:100E80000304A04205D0211A304600F05BF801307F
:100E90001DD02560304600F069F804F10B0020F009
:100EA0000700231DC21A01D01B1AA350F8BD0C2243
:100EB00032600020F8BD0B2B05D8A242636811D028
:100EC0005360E7E7144623601C442560E2E70C23E7
:100ED0003046336000F04AF80020F8BD0B2BF1D803
:100EE000536814463B60D5E7304600F02BF8786035
:100EF000BEE700BFCC4E002009B3F8B51446CAB116
:100F000006460D4600F034F8A04202D32F4638467C
:100F1000F8BD21463046FFF78BFF07460028F6D084
:100F200022462946FFF72CFE30462946FFF72AFFC6
:100F30003846F8BD2746FFF725FF3846F8BD11466D
:100F4000FFF776BF38B5074C0023054608462360F7
:100F500000F016F8431C00D038BD2368002BFBD0EE
:100F60002B6038BD002D0120704700BF704700BFC7
:100F700051F8043C181F002BBCBF0B58C018704719
:100F8000044A05491368002B08BF0B46184410603B
:100F900018467047D44E0020082D012053B94AB995
:100FA000002908BF00281CBF4FF0FF314FF0FF3071
:100FB00000F06EB9ADF1080C6DE904CE00F006F852
:100FC000DDF804E0DDE9022304B070472DE9F047C5
:100FD000089D04468C46002B40F083808A421746C9
:100FE00047D9B2FA82F242B1C2F1200024FA00F0ED
:100FF0009140974040EA010C94404FEA1748230C77
:10100000BCFBF8F61FFA87FE08FB16C143EA014352
:1010100006FB0EF1994209D9FB1806F1FF3080F06A
:101020001981994240F21681023E3B445B1AA4B2F8
:10103000B3FBF8F008FB103344EA034400FB0EFE58
:10104000A64509D93C1900F1FF3380F00581A6457A
:1010500040F2028102383C4440EA0640A4EB0E0410
:1010600000261DB1D4400023C5E900433146BDE848
:10107000F08702B9FFDEB2FA82F2002A50D1CB1B10
:101080004FEA174E1FFA87F80126B3FBFEFC210C2E
:101090000EFB1C3341EA034108FB0CF38B4207D9DA
:1010A00079180CF1FF3002D28B4200F2E9808446BD
:1010B000C91AA3B2B1FBFEF00EFB101143EA0144C2
:1010C00008FB00F8A04507D93C1900F1FF3302D214
:1010D000A04500F2D9801846A4EB080440EA0C4071
:1010E000BFE78B4209D9002D00F0B1800026C5E989
:1010F000000130463146BDE8F087B3FA83F6002E92
:101100004AD18B4202D3824200F2B880841A61EB4A
:10111000030101208C46002DA8D0C5E9004CA5E7AD
:10112000C2F1200320FA03F6974001FA02F04FEAD9
:10113000174ED9403043030CB1FBFEF61FFA87F877
:101140000EFB161143EA014306FB08F1994204FA2B
:1011500002F409D9FB1806F1FF3C80F08D8099421A
:1011600040F28A80023E3B445B1A81B2B3FBFEF040
:101170000EFB103341EA034100FB08F38B4207D911
:10118000791800F1FF3C73D28B4271D9023839448F
:10119000CB1A40EA064678E7C6F1200C03FA06F4BB
:1011A00022FA0CF31C4320FA0CF701FA06F34FEA7B
:1011B000144E21FA0CF11F433B0CB1FBFEF91FFA50
:1011C00084F80EFB191143EA014109FB08FA8A452C
:1011D00002FA06F200FA06F308D9611809F1FF30A5
:1011E00048D28A4546D9A9F102092144A1EB0A0156
:1011F000BFB2B1FBFEF00EFB101147EA014700FB46
:1012000008F8B84507D9E71900F1FF312ED2B845E3
:101210002CD90238274440EA0940A7EB0807A0FB75
:1012200002894F45C64649461AD317D05DB1B3EB84
:101230000E0267EB010707FA0CFCF2404CEA0202CF
:10124000F740C5E9002700263146BDE8F0872E4665
:1012500028460BE70646E9E61846FDE64345E5D293
:10126000B8EB020E69EB04010138DFE70846D2E76C
:1012700060468DE78146B9E7664675E730464AE73E
:10128000ACF1020C394413E702383C4424E700BFB8
:10129000704700BF08B50268034B9A4200D008BDF2
:1012A00001F074F9FBE700BF0000014008B50249F6
:1012B000024801F0F7FDFAE7604C0208445E0008BE
:1012C00000B595B0002201922A4B196C41F0805173
:1012D00019641B6C03F080530193019B0292264B0F
:1012E000196841F4804119601B6803F4804302933C
:1012F000029B0223089301210B9110210C910E9364
:101300000F9208221092F022119212930723139346
:1013100008A800F0D1FA20BB0F2303930223049303
:10132000002305934FF4C05306934FF4A053079343
:10133000052103A800F0F2FCB8B900F09DFD0F4BA9
:10134000A3FB0030800901F0DBF8042001F0EEF887
:10135000002211464FF0FF3001F092F815B05DF811
:1013600004FBCC210648FFF7A1FFDA210448FFF770
:101370009DFF00BF0038024000700040D34D621056
:101380004C5E000808B501F0E7F8FFF799FF00F0A0
:1013900043F801F02FFD01F045F901F057FC40F64C
:1013A000B83001F005F901F075FE08E044F645613A
:1013B000134804F05DFC4021124800F08DFE01F05E
:1013C0008FFE114B1B78012BF0D0022BF3D0032B97
:1013D00009D0042B0DD0052BEDD14CF21E010B488A
:1013E00004F046FCE7E74BF2B941094804F040FC41
:1013F000E1E747F62B11074804F03AFCDBE700BFB2
:101400006400002000000240CC2B0120585E000840
:10141000781E010834D301082DE9F0438DB0002473
:101420000194484B1A6B42F010021A631A6B02F0D7
:1014300010020192019A02941A6B42F004021A639C
:101440001A6B02F004020292029A03941A6B42F0A1
:1014500080021A631A6B02F080020392039A0494CA
:101460001A6B42F001021A631A6B02F00102049235
:10147000049A05941A6B42F002021A631A6B02F086
:1014800002020592059A06941A6B42F008021A634A
:101490001B6B03F008030693069BDFF8B490012250
:1014A000FF21484600F012FE274F0122C021384696
:1014B00000F00CFEDFF89C8001220221404600F083
:1014C00005FE224E01224FF40061304600F0FEFD81
:1014D0007F23079308940125099507A9304600F05A
:1014E0000FFDFF2307930895099403230A9307A987
:1014F000484600F005FD3F2307930894099507A986
:10150000384600F0FDFCC0230793089509940A941F
:1015100007A9384600F0F4FC0223079308950994C4
:101520000A9407A9404600F0EBFC4FF400630793D0
:10153000089509940A9407A9304600F0E1FC0DB023
:10154000BDE8F08300380240000002400010024075
:1015500000080240000402407047FEE7FEE7FEE795
:10156000FEE770477047704708B500F0F0FF08BD10
:1015700008B5024800F067F808BD00BFC42C012080
:1015800008B5024800F07CFE08BD00BFD42B012046
:1015900010B582B000240094214B5A6C42F4804272
:1015A0005A645A6C02F480420092009A01941A6CB8
:1015B00042F080521A641B6C03F080530193019B2C
:1015C000032000F04BFF224621466FF00B0000F095
:1015D00057FF224621466FF00A0000F051FF2246D5
:1015E00021466FF0090000F04BFF224621466FF0C4
:1015F000040000F045FF224621466FF0030000F092
:101600003FFF224621466FF0010000F039FF2246DD
:1016100021464FF0FF3000F033FF02B010BD00BF95
:101620000038024070470268D36843F00103D3607A
:101630000268136843F0010313600020704770478D
:1016400070477047704710B5044603681A6912F076
:10165000020F11D0DA6812F0020F0DD06FF0020203
:101660001A610123037603689B6913F0030F70D09E
:10167000FFF7E6FF0023237623681A6912F0040FB0
:1016800012D0DA6812F0040F0ED06FF004021A6163
:101690000223237623689B6913F4407F5FD02046A2
:1016A000FFF7CEFF0023237623681A6912F0080F94
:1016B00012D0DA6812F0080F0ED06FF008021A612B
:1016C000042323762368DB6913F0030F4ED02046F2
:1016D000FFF7B6FF0023237623681A6912F0100F74
:1016E00012D0DA6812F0100F0ED06FF010021A61EB
:1016F000082323762368DB6913F4407F3DD020461E
:10170000FFF79EFF0023237623681A6912F0010F6A
:1017100003D0DA6812F0010F36D123681A6912F08B
:10172000800F03D0DA6812F0800F34D123681A6971
:1017300012F0400F03D0DA6812F0400F32D1236864
:101740001A6912F0200F03D0DA6812F0200F30D19E
:1017500010BDFFF774FF2046FFF773FF8AE72046AE
:10176000FFF76DFF2046FFF76CFF9BE72046FFF772
:1017700066FF2046FFF765FFACE72046FFF75FFFF7
:101780002046FFF75EFFBDE76FF001021A612046B9
:10179000FFF780FDC1E76FF080021A61204600F07C
:1017A0008AF8C3E76FF040021A612046FFF74AFF4C
:1017B000C5E76FF020021A61204600F07BF8C7E70A
:1017C00003682E4A904212D0B0F1804F0FD0A2F59C
:1017D0007C4290420BD002F58062904207D002F525
:1017E0008062904203D002F57842904203D123F008
:1017F00070034A681343214A90422AD0B0F1804FC7
:1018000027D0A2F57C42904223D002F5806290421C
:101810001FD002F5806290421BD002F578429042C0
:1018200017D002F57052904213D002F580629042B8
:101830000FD002F5806290420BD0A2F59832904210
:1018400007D002F58062904203D002F58062904298
:1018500003D123F44073CA68134303608B68C362E7
:101860000B688362054B984203D003F5806398426E
:1018700001D10B69036301234361704700000140FC
:10188000B0B110B5044690F8393063B1022384F842
:101890003930214651F8040BFFF792FF012384F8F9
:1018A0003930002010BD80F83830FFF7BBFEEDE77F
:1018B0000120704770477047002800F0B98170B56B
:1018C00082B00446036813F0010F3BD0A64B9B681F
:1018D00003F00C03042B2CD0A34B9B6803F00C03E8
:1018E000082B21D06368B3F5803F4FD0B3F5A02F0C
:1018F00052D09D4B1A6822F480321A601A6822F482
:1019000080221A606368002B50D000F04BFE054621
:10191000954B1B6813F4003F14D100F043FE401BAD
:101920006428F5D903208AE18F4B5B6813F4800F9C
:10193000D8D08D4B1B6813F4003F03D06368002B95
:1019400000F07881236813F0020F54D0864B9B6817
:1019500013F00C0F3ED0844B9B6803F00C03082B54
:1019600033D0E368002B67D0804B01221A6000F06F
:1019700019FE05467C4B1B6813F0020F53D100F093
:1019800011FE401B0228F5D9032058E1764A13685E
:1019900043F480331360B5E7734B1A6842F4802236
:1019A0001A601A6842F480321A60ABE700F0FAFD60
:1019B00005466D4B1B6813F4003FC3D000F0F2FDE9
:1019C000401B6428F5D9032039E1674B5B6813F4A9
:1019D000800FC6D1644B1B6813F0020F03D0E3687D
:1019E000012B40F02981604A136823F0F803216934
:1019F00043EAC1031360236813F0080F40D0636902
:101A000063B35B4B01221A6000F0CCFD0546564BD8
:101A10005B6F13F0020F33D100F0C4FD401B0228AE
:101A2000F5D903200BE1504A136823F0F80321692C
:101A300043EAC1031360DEE74C4B00221A6000F05A
:101A4000B1FD0546484B1B6813F0020FD3D000F0E0
:101A5000A9FD401B0228F5D90320F0E0444B0022E9
:101A60001A6000F09FFD05463F4B5B6F13F0020FBD
:101A700006D000F097FD401B0228F5D90320DEE0D8
:101A8000236813F0040F78D0374B1B6C13F0805F82
:101A90000DD100230193344B1A6C42F080521A642A
:101AA0001B6C03F080530193019B012500E000258E
:101AB000304B1B6813F4807F21D0A368012B32D0F8
:101AC000052B36D0284B1A6F22F001021A671A6FC5
:101AD00022F004021A67A368002B34D000F062FDE4
:101AE0000646214B1B6F13F0020F45D100F05AFD43
:101AF000801B41F288339842F3D903209FE01D4AAE
:101B0000136843F48073136000F04CFD0646194BD4
:101B10001B6813F4807FD0D100F044FD801B0228A5
:101B2000F5D903208BE0104A136F43F001031367CC
:101B3000D1E70D4B1A6F42F004021A671A6F42F098
:101B400001021A67C7E700F02DFD0646064B1B6F22
:101B500013F0020F10D000F025FD801B41F28833F6
:101B60009842F3D903206AE000380240000047425F
:101B7000800E474200700040E5B9A369002B5DD09C
:101B8000314A926802F00C02082A5AD0022B17D070
:101B90002E4B00221A6000F005FD04462A4B1B68FC
:101BA00013F0007F42D000F0FDFC001B0228F5D9A5
:101BB000032044E0244A136C23F080531364DCE7D1
:101BC000224B00221A6000F0EDFC05461E4B1B68FC
:101BD00013F0007F06D000F0E5FC401B0228F5D989
:101BE00003202CE0E369226A1343626A43EA82130A
:101BF000A26A5208013A43EA0243E26A43EA0263F4
:101C0000114A5360114B01221A6000F0CBFC0446CC
:101C10000D4B1B6813F0007F06D100F0C3FC001BC6
:101C20000228F5D903200AE0002008E0002006E0A1
:101C300001207047012002E0012000E0002002B0F6
:101C400070BD0120FBE700BF003802406000474242
:101C5000F8B52F4B9B6803F00C03042B53D0082BD3
:101C600053D12B4B5A6802F03F025B6813F4800F8C
:101C700028D0274B5B68C3F3881358010021C01A92
:101C800061F100018E0146EA906687013C1A66EB1D
:101C90000105E90041EA5471E000C01841F100017A
:101CA0004B0243EAD0534402204619460023FFF773
:101CB00075F9174B5B68C3F3014301335B00B0FB5D
:101CC000F3F023E0124B5B68C3F388135C0100253B
:101CD000E41A65F10005AE0146EA9466A701381BD7
:101CE00066EB0501CC0044EA5074C500E81844F1E5
:101CF00000018B0243EA90538402204619460023D8
:101D0000FFF74CF9D5E7034800E00348F8BD00BFF2
:101D10000038024000127A000024F400002800F08D
:101D20009A8070B50D4604464F4B1B6803F00F03B5
:101D30008B4208D2CBB24C4A1370136803F00F03E6
:101D40008B4240F08A80236813F0020F17D013F003
:101D5000040F04D0454A936843F4E053936023682A
:101D600013F0080F04D0414A936843F46043936032
:101D70003E4A936823F0F003A1680B439360236805
:101D800013F0010F32D06368012B21D09A1E012A73
:101D900025D9364A126812F0020F60D033498A689A
:101DA00022F0030213438B6000F0FCFB06462F4B2E
:101DB0009B6803F00C036268B3EB820F16D000F04F
:101DC000F1FB801B41F288339842F0D9032041E0B7
:101DD000264A126812F4003FE0D101203AE0234A7B
:101DE000126812F0007FD9D1012033E01E4B1B682E
:101DF00003F00F03AB4207D9EAB21B4B1A701B6802
:101E000003F00F03AB422CD1236813F0040F06D06C
:101E1000164A936823F4E053E1680B439360236808
:101E200013F0080F07D0114A936823F46043216927
:101E300043EAC1039360FFF70BFF0C4B9B68C3F3AE
:101E400003130B4AD35CD8400A4B1860002000F003
:101E5000EBFF002070BD012070470120FAE7012050
:101E6000F8E70120F6E700BF003C024000380240DE
:101E7000784C0208AC4E0020014B1868704700BF38
:101E8000AC4E002008B5FFF7F7FF044B9B68C3F387
:101E90008223034AD35CD84008BD00BF003802400B
:101EA000884C020808B5FFF7E7FF044B9B68C3F3B3
:101EB0004233034AD35CD84008BD00BF003802401B
:101EC000884C02080F2303600B4B9A6802F0030250
:101ED00042609A6802F0F00282609A6802F4E0526E
:101EE000C2609B68DB0803F4E0530361034B1B688B
:101EF00003F00F030B60704700380240003C0240C3
:101F000000230F2B00F2D980F0B482B039E0072211
:101F100000E00022B2403A430234684E46F82420E2
:101F2000674A1468EA4324EA05064F6817F4803FBD
:101F300001D045EA0406624C2660646802EA0406A1
:101F40004F6817F4003F01D045EA04065C4C666018
:101F5000A46802EA04064F6817F4801F01D045EA1E
:101F60000406574CA660E46822404E6816F4001F31
:101F700001D045EA0402524CE26001330F2B00F21B
:101F8000998001229A400C6804EA020532EA0404AE
:101F9000F3D14C68022C01D0122C10D1DE08083687
:101FA00050F826C003F00704A7000F24BC402CEA19
:101FB000040C0C69BC4044EA0C0440F82640D0F8FC
:101FC00000C05E000324B440E7432CEA040C4C68D4
:101FD00004F00304B44044EA0C0404604C6804F1C7
:101FE000FF3CBCF1010F03D9112C01D0122C10D1F0
:101FF000846807EA040CCC68B44044EA0C048460AA
:10200000446824EA02024C68C4F300149C40144360
:102010004460C26817408A68B2403A43C2604A6866
:1020200012F0805FA9D000220192264A546C44F439
:1020300080445464526C02F480420192019A9C08DC
:10204000A61C1E4A52F8267003F0030296000F22C7
:10205000B24027EA02071C4A90423FF45AAF02F509
:10206000806290421AD002F58062904218D002F548
:102070008062904216D002F58062904214D002F540
:102080008062904212D002F58062904210D002F538
:10209000806290423FF43BAF08223BE7012239E7E0
:1020A000022237E7032235E7042233E7052231E72E
:1020B00006222FE702B0F0BC70477047003801409D
:1020C000003C014000380240000002400AB181613A
:1020D0007047090481617047436959404161704705
:1020E00010B40368D9B210390C4AA2FB014212099C
:1020F0000B4CA25CC2655F2909D923F47F7323F0DE
:10210000030304338365806D5DF8044B704723F44B
:102110007F7323F003038365F5E700BFABAAAAAA88
:10212000704C0208836A826992B9012B0AD0022B93
:1021300002D00BB100207047C36A13F0807F28D112
:1021400000207047C36AB3F1C07F24D000207047DD
:10215000B2F5005F09D0022B25D9032B25D1C36A24
:1021600013F0807F23D100207047032B03D8DFE8D2
:1021700003F01404140A00207047C36A13F0807F30
:102180000DD100207047C36AB3F1C07F09D0002091
:1021900070470120704701207047012070470120DF
:1021A00070470120704701207047002070470120D0
:1021B0007047000070B5044600F0F4F9002C5BD0C5
:1021C0000546002384F83430022384F83530226831
:1021D000136823F00103136023681A6812F0010FDB
:1021E0000AD000F0DFF9431B052BF5D920236365E6
:1021F000032084F8350070BD1A68204810406168DB
:10220000A2680A43E1680A4321690A4361690A43F3
:10221000A1690A43E1690A43216A0A430243616AE8
:1022200004291ED01A602668756925F00705636ABF
:102230001D43042B07D1A36A1D43E36A1BB120464B
:10224000FFF770FF90B975612046FFF749FFE26D17
:102250003F239340836000206065012384F835307C
:10226000C9E7E16A206B01430A43DBE7402363656A
:10227000012084F83500BEE70120BCE73F8010F064
:10228000F0B583B0044600230193724B1D68724B76
:10229000A3FB0535AD0A876D3E68C26D08239340E8
:1022A000334210D003681A6812F0040F0BD01A687A
:1022B00022F004021A60C26D08239340BB60436D94
:1022C00043F001034365E26D01239340334209D09B
:1022D0002268526912F0800F04D0BB60636D43F036
:1022E00002036365E26D04239340334209D0226800
:1022F000126812F0020F04D0BB60636D43F0040358
:102300006365E26D10239340334224D02268126843
:1023100012F0080F1FD0BB6023681A6812F4802FD8
:102320000DD01B6813F4002F04D1236C9BB1204601
:10233000984710E0A36C73B1204698470BE01A68E9
:1023400012F4807F03D11A6822F008021A60236C0D
:102350000BB120469847E26D20239340334255D07D
:102360002268126812F0100F50D0BB6094F835301C
:10237000DBB2052B0ED023681A6812F4802F33D0FD
:102380001B6813F4002F2AD1636C002B3ED020462B
:1023900098473BE02268136823F016031360226815
:1023A000536923F080035361236CA3B1226813683F
:1023B00023F008031360E26D3F239340BB600023CA
:1023C00084F83430012384F83530236D002B3FD05E
:1023D000204698473CE0A36C002BE7D1EBE7E36B8A
:1023E000A3B12046984711E01A6812F4807F09D102
:1023F0001A6822F010021A60002384F83430012396
:1024000084F83530E36B0BB120469847636DFBB120
:10241000636D13F0010F17D0052384F8353022685F
:10242000136823F001031360019B01330193AB4256
:1024300004D823681B6813F0010FF5D1002384F83A
:102440003430012384F83530E36C0BB120469847D3
:1024500003B0F0BDAC4E0020B5814E1B074AD368D7
:1024600023F4E0631B041B0C000200F4E060034350
:1024700043F0BF6343F40033D360704700ED00E0E6
:1024800030B4174BDB68C3F30223C3F10704042CF9
:1024900028BF04241D1D062D18D9033B4FF0FF351E
:1024A00005FA04F421EA0401994005FA03F322EA4B
:1024B0000303194300280BDB0901C9B200F1604096
:1024C00000F5614080F8001330BC70470023E5E759
:1024D00000F00F000901C9B2024B1954F4E700BF24
:1024E00000ED00E014ED00E000F01F0240090123C0
:1024F0009340024A42F82030704700BF00E100E0FC
:102500000138B0F1807F0AD2064B5860064AF021AC
:1025100082F823100020986007221A60704701207B
:10252000704700BF10E000E000ED00E0042805D097
:10253000054A136823F0040313607047024A1368C6
:1025400043F004031360704710E000E0704708B5E3
:10255000FFF7FCFF08BD000008B50B4B1A6842F4FA
:1025600000721A601A6842F480621A601A6842F4B3
:1025700080721A600320FFF771FF002000F054FC06
:10258000FFF706F8002008BD003C0240034A11682E
:10259000034B1B780B441360704700BFD02B012006
:1025A000A94E0020014B1868704700BFD02B0120B6
:1025B00038B50446FFF7F6FF0546B4F1FF3F02D0F9
:1025C000044B1B781C44FFF7EDFF401BA042FAD3DD
:1025D00038BD00BFA94E00200F49D1F8883043F420
:1025E0007003C1F888300D4B1A6842F001021A607E
:1025F000002098601A6822F0847222F480321A60F7
:10260000074A5A601A6822F480221A60D8604FF094
:1026100000638B60704700BF00ED00E000380240AF
:102620001030002408B50B480B4B03604FF4E13326
:10263000436000238360C36003610C2242618361B5
:10264000C36100F02BFA00B908BD44210348FEF72E
:102650002DFEF9E7342C012000100140904C0208B7
:102660000268224B9A4200D0704730B587B00446CA
:102670000025009503F594335A6C42F010025A6419
:102680005B6C03F010030093009B4FF4C063019355
:102690000223029301230393032304930723059347
:1026A00001A91348FFF72CFC1248134B03604FF0AD
:1026B000006343608560C5604FF4806303614561DA
:1026C00085614FF48073C3614FF440330362456208
:1026D000FFF770FD20B9074B63639C6307B030BD03
:1026E0006E210648FEF7E2FDF5E700BF001001404D
:1026F00000000240D42B012040640240904C0208AC
:102700002DE9F843044601680A6922F44052C3687F
:1027100013430B610168CA6822F4164222F00C02CE
:1027200083680069034360690343E069034313431B
:10273000CB6021684A6922F44072A36913434B615C
:10274000E369B3F5004F60D02368B84A934200F0C4
:10275000148102F58062934200F00F81FFF792FB33
:1027600000EB800000EB80006568AD00B0FBF5F584
:10277000AF4EA6FB05356D092F01FFF783FB00EB7C
:10278000800505EB850563689B00B5FBF3F9FFF752
:1027900079FB00EB800000EB80006568AD00B0FBCA
:1027A000F5F5A6FB05356D094FF0640808FB159596
:1027B0002D013235A6FB05356D0905F0F0053D44C8
:1027C000FFF760FB00EB800000EB80006768BF0054
:1027D000B0FBF7F7FFF756FB00EB800000EB800043
:1027E00063689B00B0FBF3F0A6FB0030400908FBD8
:1027F00010784FEA081808F13208A6FB0836C6F32D
:10280000431623682E449E600DE12368874A934255
:102810005BD002F58062934257D0FFF733FB00EBA9
:10282000800000EB800065686D00B0FBF5F5804E20
:10283000A6FB05356D092F01FFF724FB00EB800097
:1028400000EB800065686D00B0FBF5F9FFF71AFB3F
:1028500000EB800000EB800065686D00B0FBF5F5D3
:10286000A6FB05356D094FF0640808FB1595ED00D2
:102870003235A6FB05356D096D0005F4F8753D444C
:10288000FFF700FB00EB800000EB800067687F0033
:10289000B0FBF7F7FFF7F6FA00EB800000EB8000E3
:1028A00063685B00B0FBF3F3A6FB03235B0908FB43
:1028B00013784FEAC80808F13208A6FB0836C6F3B9
:1028C000421623682E449E60ADE0FFF7EBFA00EB62
:1028D000800000EB800065686D00B0FBF5F5544E9C
:1028E000A6FB05356D092F01FFF7DCFA00EB800030
:1028F00000EB800065686D00B0FBF5F9FFF7D2FAD8
:1029000000EB800000EB800065686D00B0FBF5F522
:10291000A6FB05356D094FF0640808FB1595ED0021
:102920003235A6FB05356D096D0005F4F8753D449B
:10293000FFF7B8FA00EB800000EB800067687F00CB
:10294000B0FBF7F7FFF7AEFA00EB800000EB80007A
:1029500063685B00B0FBF3F3A6FB03235B0908FB92
:1029600013784FEAC80808F13208A6FB0836C6F308
:10297000421623682E449E6055E0FFF793FA00EB61
:10298000800000EB80006568AD00B0FBF5F5284ED7
:10299000A6FB05356D092F01FFF784FA00EB8005D2
:1029A00005EB850563689B00B5FBF3F9FFF77AFA41
:1029B00000EB800000EB80006568AD00B0FBF5F532
:1029C000A6FB05356D094FF0640808FB15952D0130
:1029D0003235A6FB05356D0905F0F0053D44FFF7DE
:1029E00061FA00EB800000EB80006768BF00B0FB7D
:1029F000F7F7FFF757FA00EB800000EB8000636801
:102A00009B00B0FBF3F0A6FB0030400908FB1078F8
:102A10004FEA081808F13208A6FB0836C6F3431639
:102A200023682E449E60BDE8F88300BF001001407B
:102A30001F85EB512DE9F84305460F46164699468A
:102A4000DDF820802C68246837EA04030CBF0124D9
:102A50000024B4421FD1B8F1FF3FF3D0B8F1000F0A
:102A600005D0FFF79FFDA0EB09004045EAD92A6891
:102A7000D36823F4D073D3602A68536923F0010329
:102A80005361202385F8393085F83A30002385F8E2
:102A90003830032000E00020BDE8F88358B310B5BB
:102AA000044690F839300BB3242384F83930226877
:102AB000D36823F40053D3602046FFF721FE226839
:102AC000136923F4904313612268536923F02A03A6
:102AD00053612268D36843F40053D3600020E0635D
:102AE000202384F8393084F83A3010BD80F838302B
:102AF000FFF7B6FDD8E7012070472DE9F04182B01D
:102B00001E4690F83930DBB2202B58D104460D46D2
:102B10009046002957D0002A57D090F83830012B22
:102B200055D0012380F838300023C363212380F877
:102B30003930FFF737FD0746A4F82480A4F8268033
:102B400017E000963B46002280212046FFF772FFE7
:102B500000283ED12B882268C3F308035360236901
:102B60000BB9023505E0013503E015F8012B2368A8
:102B70005A60E38C9BB29BB1E28C92B2013A92B262
:102B8000E284A368B3F5805FDBD000963B46002269
:102B900080212046FFF74EFF0028E6D003200FE0FB
:102BA00000963B46002240212046FFF743FF90B9A4
:102BB000202384F83930002384F8383000E00220E4
:102BC00002B0BDE8F0810120FAE70120F8E7022019
:102BD000F6E70320F4E70320F2E70000174B1B6839
:102BE00003B17047F0B587B0144B01221A6000247E
:102BF0000094134B9A6B42F001029A639B6B03F0B3
:102C000001030093009B4FF4F063019302270297A6
:102C10000394032604960C25059501A90948FFF79E
:102C20006FF94EF2B303019302970394049605954E
:102C300001A90548FFF764F907B0F0BDD84E0020A0
:102C40000038024000100240000C024000B589B07C
:102C500017484FF02043036003F58273436000225E
:102C60008260C260026142618261C261026242624C
:102C70004FF480538362C2620263426382634264A0
:102C80000F230193029314210391049310230593BE
:102C900011230693079201A900F082F810B909B038
:102CA0005DF804FB56210348FEF700FBF7E700BF81
:102CB000742C01209C4C020808B5FFF78FFF08BD5B
:102CC00070B40C6850F82430134E1E404A688D686A
:102CD00042EA0503CA6813430A6913434A69134366
:102CE0008A691343CA6913430A6A13434A6A13433E
:102CF0008A6A1343CA6A1343CA6B13430A6B1343AA
:102D00003343082D04D040F82430002070BC7047B5
:102D100043F04003F7E700BF8000F0FF30B401321A
:102D200050F8224004F040440B684D6843EA051314
:102D30008D6843EA0523CD6843EA05430D69013DEB
:102D400043EA05534D69023D43EA056389690B4334
:102D5000234340F82230002030BC7047B3F5804F49
:102D600005D06FF0704340F822300020704730B437
:102D700050F82230094C1C400B684D6843EA05139B
:102D80008D6843EA0523CD6843EA054389690B430F
:102D9000234340F82230002030BC70470000F0CFC1
:102DA00028B370B50E461546044690F84930CBB1AD
:102DB000214651F8080BFFF783FFA26831462068CF
:102DC000FFF7ACFF236BA26829466068FFF7C6FFD8
:102DD0002268A16852F8213043F0010342F8213003
:102DE000002070BD80F84830FFF766FFE0E7012063
:102DF0007047000000B583B000210191094B1A6BA8
:102E000042F480021A631B6B03F480030193019B5D
:102E10000A463A20FFF734FB3A20FFF765FB03B080
:102E20005DF804FB0038024010B588B0014600226E
:102E30001920FFF725FB1920FFF756FB002401940A
:102E4000144B5A6C42F001025A645B6C03F00103AC
:102E50000193019B02A903A8FFF734F8FFF722F8BA
:102E600043000D48A0FB03239B0C013B0B480C4A7D
:102E7000026040F2E732C260436004618460FEF7A2
:102E8000FFFC10B1012008B010BD0448FEF7CBFBD9
:102E9000F9E700BF0038024083DE1B43C42C012049
:102EA000000001400FB430B583B006AB53F8042BDB
:102EB0000193094D6C1CC8212046FDF707FAC2B2E8
:102EC0002A704FF0FF3321460448FFF716FE03B087
:102ED000BDE8304004B07047DC4E0020342C0120A7
:102EE00070B44FF0C0452A242C70060A0D4C267091
:102EF000C6B22670084480B20138C0F307212170A1
:102F0000C0B220702B212970110A2170D1B221701A
:102F10001A4492B2013AC2F307232370D2B222704C
:102F200070BC70470000046010B50A4C00224FF4DA
:102F300000612046FFF7CAF80220FFF739FB0122A3
:102F40004FF400612046FFF7C1F84FF0C043012263
:102F50001A7010BD001002404FF0C04336221A70A4
:102F6000032813D8DFE800F002060A0E094B4822B6
:102F70001A707047074B28221A707047054B882239
:102F80001A707047034BE8221A707047014B0022F9
:102F90001A70704700000460F8B50F461E46BDF871
:102FA0001850FFF79DFF4FF0C0432C221A700020ED
:102FB00006FB07F2824206D92A0A034C2270EBB2C2
:102FC00023700130F4E7F8BD0000046030B583B031
:102FD000FFF7AAFF4FF47A70FFF7EAFA4FF0C04408
:102FE000C02323701B4B25221A70C122227011228C
:102FF0001A70C52121702B2119701970C7212170F9
:10300000862119703A21217055211970B121217042
:1030100000251D7018211970B62121700A21197020
:10302000822119702721197022707820FFF7C0FAC9
:103030000320FFF791FF292323706420FFF7B8FADC
:103040000095F0232A464FF4A0712846FFF7A4FF0D
:1030500003B030BD0000046010B5144608230A46D2
:103060001946FFF73DFF4FF0C0432C221A70002392
:103070000AE0224632F8021B0C0A05480470C9B265
:10308000017001339BB214463F2BF2D910BD00BF33
:103090000000046008B5FFF799FF02F0F9FA084B49
:1030A000084A1A60084A5A60084A9A60084ADA6070
:1030B000084A1A61084A5A61084802F097F808BDA0
:1030C000B44F00204D530008795300089553000871
:1030D000B9530008D153000825540008CC4F0020F4
:1030E00038B5144D144C29682368144AC91A144879
:1030F00002F011F92368184420602B68984207DA1F
:10310000FFF750FA0F4B1B68C01A13280AD838BDB6
:1031100003F58A33FC332B60084AFF21084802F08C
:10312000C0F8EDE702F022FAFFF73CFA054B186011
:10313000EDE700BFA84F0020B04F0020B44F0020A3
:10314000CC4F0020AC4F002000487047CC4F0020EF
:103150002DE9F04F87B005460C4616460293DDF880
:103160004090D0F824B0076A07F07F0719E0564670
:10317000A24600F00703019951F82320C0F3C204CE
:1031800051F8243012781A70029B9E4281F27480AA
:10319000D9F800301FFA8BF0984704460BF1010B69
:1031A000574605F13408CDF804802046DB4B1B5C04
:1031B00006F1040A7C1C7A2B02F20C8001A252F860
:1031C00023F000BF6F310008B1330008D13300088D
:1031D0002534000879340008CF340008DF340008B3
:1031E000EF3400080B3500082135000831350008A0
:1031F0004D3500087F35000897350008B9350008BF
:10320000D935000803360008233600084D3600087B
:103210005B3600087F360008A1360008AF3600088C
:10322000BD360008DB360008FD3600085F370008B1
:10323000F53700086B380008033900083B390008EF
:1032400077390008D7390008193A0008613A0008B0
:10325000CB3A0008153B00085B3B0008C33B000865
:103260000D3C00085D3C0008CF3C0008F33C000822
:10327000193D0008EF3D00080F3E0008413E0008E0
:10328000633D0008833D0008A73D0008893E000813
:10329000D33E0008213F0008913F0008CD3F0008C1
:1032A0006B400008AF400008E542000825430008D5
:1032B00073430008C9430008E34300085341000872
:1032C000C9410008ED410008214200084B420008B6
:1032D000D55100086B42000895420008A942000839
:1032E000BD420008FD4300081F4400084544000893
:1032F0006F44000899440008D14400085D45000867
:103300008F4500082346000851460008E1460008A2
:1033100011470008A9470008D54700085948000888
:10332000854800081D4900084B490008D749000896
:10333000014A0008894A0008E34A00082D4B0008AA
:10334000954B0008B74B0008374C00085B4C000851
:10335000E34C0008F74C0008294D0008414D0008D7
:103360007B4D00088B4D0008B74D0008E14D00086B
:103370002D4E0008454E00087F4E00089B4E000869
:10338000C14E0008E14E00081B4F0008894F00089D
:10339000275000084750000873500008D750000815
:1033A0005B51000889510008A5510008BB51000875
:1033B000A246D9F80030C0F3C204019A52F8244062
:1033C0001FFA8BF0984720700BF1010B0736DBE6F4
:1033D000A2460446019B434518D0D9F800301FFA95
:1033E0008BF098470BF1010B019B9B691B8843FAFB
:1033F00080F0D9F80020C4F3C2030C3305EB83033B
:103400005C6880B2904720700F36BDE6D9F8003076
:10341000C0F3C204019A52F82440288998472070CA
:103420000736B1E6A2460446019B434518D0D9F8B9
:1034300000301FFA8BF098470BF1010B019B9B6941
:103440001B8843FA80F0D9F8082004F007030C33F6
:1034500005EB83035B68197880B290470F3693E6DB
:10346000D9F8083000F00704019A52F824201178A6
:1034700028899847073687E6A246019B434518D01E
:10348000D9F800301FFA8BF098470BF10102019B2D
:103490009B691B8843FA80F4D9F8003090B29847B2
:1034A00001460BF1020BD9F80830A0B298470F364D
:1034B0006AE6D9F800301FFA8BF0984701460BF105
:1034C000010BD9F80830288998470A365CE6A246ED
:1034D000D9F80030A8889847E872073654E6A24623
:1034E000D9F80030E8889847E87207364CE6A246DB
:1034F000D9F804301FFA8BF098470BF1020BD9F87A
:1035000000309847E8720D363EE6A246D9F80830FA
:10351000E97AA8889847073636E600BFC84E020801
:10352000A246D9F80830E97AE888984707362BE6AA
:10353000A246D9F804301FFA8BF098470BF1020B22
:10354000D9F80830E97A98470D361DE6A246572883
:1035500013D02B6A03F080030AF07F021A43A44BB6
:103560009B5CE96A43EA8101AB7A03F001030B43F8
:1035700043EA02236B81053606E6EA69EFE7A246D5
:10358000472805D0EB7A2B6203F07F0A0536FBE56E
:10359000EB7AEB61FAE7A246D9F80420C0F30113F5
:1035A0000833019951F823401FFA8BF0904720808F
:1035B0000BF1020B0A36E7E5A246D9F804301FFAF0
:1035C0008BF098470BF1020BD9F80430019A9469FB
:1035D000984720801036D7E5A2460446D9F8043033
:1035E0001FFA8BF098470BF1020BD9F80420C4F3B3
:1035F00001130833019951F8234090472080103679
:10360000C2E5A246D9F804301FFA8BF098470BF1B7
:10361000020BD9F80C30019A92691188984710363C
:10362000B2E5A2460446D9F804301FFA8BF0984759
:103630000BF1020BD9F80C20C4F3011308330199E4
:1036400051F823301988904710369DE5A246019B1A
:103650009B691B882B82063696E5A2460446288A7B
:10366000023880B22882D9F80C30C4F301120C322F
:10367000019951F82220118898470B3684E5A2461B
:10368000D9F80420C0F301130C33019951F82340F9
:10369000288A904720800A362B8A02332B8273E5D2
:1036A0005646A246EB882A89EA802B816CE556466D
:1036B000A2466B892A8B6A812B8365E55646A24612
:1036C000AB886A8AAA806B82EB88AA8AEA80AB827E
:1036D0002B89EA8A2A81EB8256E5A246D9F8043082
:1036E000288A98470446D9F80C30019FBA69118896
:1036F000288A9847BB691C80133645E5A2460446D4
:10370000D9F80030288998470746D9F8083001468B
:10371000E8889847A97A01F0C101AB88013B9BB2C8
:10372000AB80C3B104221143EB7A3B4403F008029F
:103730000A431B0103F020031343AB72A02C0CD0EF
:103740004FF0FF339BB2EA881A44EA802A89134477
:103750002B810C3618E50022E5E70123F2E7B028BB
:103760003FD04FF0FF331A46AB7A03F0C103059305
:103770000393AB880193B5F806802C8907F1FF3AD3
:10378000043E17460AF1020AD9F80030A0B2984761
:1037900001460490D9F808301FFA88F098473C4455
:1037A000B844019B013B01931ED01536029BB342E6
:1037B000E8DC049F059B43F004030393ABF1020B89
:1037C0002C81A5F80680019BAB80EB7A1F4407F0A3
:1037D0000803039A1A433B0103F020031343AB721F
:1037E000D2E401231A46BFE7049F1036E8E700BF82
:1037F000F8500208A2460446EF7AD9F8003028892A
:1038000098473A1A2B89A12C2BD04FF6FF710B4405
:103810002B8187EA0003DBB2534003F01000C3F3AF
:103820000013D31A190101F02001014303F008032A
:103830000B43D2B2B5498A5C02F0C0021A43AB888E
:10384000013B9BB2AB8073B10423134343F00203EB
:103850005BB295F90A2002F001021343AB720C36F9
:1038600092E40121D3E70023EFE7B12844D04FF0E1
:10387000FF330193EB7A0393AC88B5F8088007F126
:10388000FF3A043E1F460AF1020AD9F800301FFA37
:1038900088F098473A1A019B9844013C2FD072B3A4
:1038A0001536029BB342EEDCABF1020BA5F80880A3
:1038B000AC80039B4340DBB2534003F01000C3F3E2
:1038C0000013D31A190101F02001014303F008038A
:1038D0000B43D2B28D498A5C02F0C002134304B19B
:1038E0000424234343F002035BB295F90A2002F05B
:1038F00001021343AB7247E401230193BAE7103688
:10390000D4E75646A246EB7A00F00704019A52F833
:1039100024201178CA184B40534003F01000D1B254
:103920007A4C615C0143DB11794850F823300B433A
:1039300043EA2223EA72AB7226E4A246D9F80030A9
:103940001FFA8BF098470BF1010B0736EB7AC21880
:103950004340DBB2534003F01000D1B26B4C615CCA
:103960000143DB116A4850F823300B4343EA22231A
:10397000EA72AB7208E4A246019B434525D0D9F810
:1039800000301FFA8BF098470BF1010B019B9B69EC
:103990001B8843FA80F0D9F8003080B298470F3680
:1039A000EB7AC2184340534003F01000D1B2574C99
:1039B000615C0143DB11564850F823300B4343EA66
:1039C0002223EA72AB72FFF7DFBBD9F800302889F7
:1039D00098470736E4E75646A246EB7A00F007041C
:1039E000019A52F824201178C818AA7A02F001022C
:1039F00002444B40534003F01000D1B2434C615C91
:103A00000143DB11424850F823300B4343EA2223A1
:103A1000EA72AB72FFF7B8BBA246D9F800301FFAC2
:103A20008BF098470BF1010B0736E97A4218AB7A15
:103A300003F001031A4480EA0103DBB2534003F0B0
:103A40001000D1B2314C615C0143DB11304850F8B9
:103A500023300B4343EA2223EA72AB72FFF794BB95
:103A6000A246019B43452AD0D9F800301FFA8BF0BB
:103A700098470BF1010B019B9B691B8843FA80F06F
:103A8000D9F8003080B298470F36E97A4218AB7AFD
:103A900003F001031A4480EA0103534003F01000CD
:103AA000D1B21A4C615C0143DB11194850F8233044
:103AB0000B4343EA2223EA72AB72FFF765BBD9F8E6
:103AC0000030288998470736DFE75646A246EB7A4A
:103AD00000F00704019A52F8242011785A1A4B403A
:103AE000534003F0100040F00200D1B2074C615C7B
:103AF0000843C3F3C114064951F824100143C3F32A
:103B000000230B43EA72AB72FFF73EBBF85002088A
:103B1000C84F0208A246D9F800301FFA8BF0984728
:103B20000BF1010B0736EB7A1A1A4340DBB2534014
:103B300003F0100040F00200D1B2BE4C615C0843BB
:103B4000C3F3C114BC4951F824100143C3F300234B
:103B50000B43EA72AB72FFF717BBA246019B4345CA
:103B600029D0D9F800301FFA8BF098470BF1010BE0
:103B7000019B9B691B8843FA80F0D9F8003080B222
:103B800098470F36EB7A1A1A4340534003F010005F
:103B900040F00200D1B2A74C615C0843C3F3C114EA
:103BA000A54951F824100143C3F300230B43EA72E3
:103BB000AB72FFF7E9BAD9F8003028899847073681
:103BC000E0E75646A246EB7A00F00704019A52F865
:103BD00024201178581AAA7A02F00102821A4B4066
:103BE000534003F0100040F00200D1B2914C615CF0
:103BF0000843C3F3C114904951F824100143C3F39F
:103C000000230B43EA72AB72FFF7BEBAA246D9F8A3
:103C100000301FFA8BF098470BF1010B0736E97A59
:103C20000A1AAB7A03F00103D21A80EA0103DBB26D
:103C3000534003F0100040F00200D1B27D4C615CB3
:103C40000843C3F3C1147C4951F824100143C3F362
:103C500000230B43EA72AB72FFF796BAA246019BB0
:103C600043452ED0D9F800301FFA8BF098470BF15E
:103C7000010B019B9B691B8843FA80F0D9F8003047
:103C800080B298470F36E97A0A1AAB7A03F001033B
:103C9000D21A80EA0103534003F0100040F0020002
:103CA000D1B2644C615C0843C3F3C114624951F85A
:103CB00024100143C3F300230B43EA72AB72FFF7F6
:103CC00063BAD9F80030288998470736DBE75646AB
:103CD000A24600F00704019B53F824301B78EA7ACF
:103CE0001340EB72554AD35C43F01003AB72FFF7FD
:103CF0004BBAA246D9F800301FFA8BF098470BF167
:103D0000010B0736EB7A0340EB724C4AD35C43F06D
:103D10001003AB72FFF738BAA246019B43451AD095
:103D2000D9F800301FFA8BF098470BF1010B019B7B
:103D30009B691B8843FA80F0D9F8003080B298471D
:103D40000F36EB7A0340EB723C4AD35C43F010032E
:103D5000AB72FFF719BAD9F80030288998470736AF
:103D6000EFE75646A24600F00704019B53F82430C3
:103D70001B78EA7A1343EB72304AD35CAB72FFF7DD
:103D800003BAA246D9F800301FFA8BF098470BF11E
:103D9000010B0736EB7A0343DBB2EB72274AD35CA5
:103DA000AB72FFF7F1B9A246019B434519D0D9F890
:103DB00000301FFA8BF098470BF1010B019B9B69B8
:103DC0001B8843FA80F0D9F8003080B298470F364C
:103DD000EB7A0343DBB2EB72184AD35CAB72FFF7AA
:103DE000D3B9D9F80030288998470736F0E7564606
:103DF000A24600F00704019B53F824301B78EA7AAE
:103E00005340EB720D4AD35CAB72FFF7BDB9A246CB
:103E1000D9F800301FFA8BF098470BF1010B0736E9
:103E2000EB7A4340DBB2EB72044AD35CAB72FFF730
:103E3000ABB900BFF8500208C84F0208F84F02089B
:103E4000A246019B434519D0D9F800301FFA8BF0E8
:103E500098470BF1010B019B9B691B8843FA80F08B
:103E6000D9F8003080B298470F36EB7A4340DBB286
:103E7000EB72BE4AD35CAB72FFF786B9D9F800305B
:103E8000288998470736F0E75646A246EB7A00F0B5
:103E90000704019A52F824201278991A53404B4093
:103EA00003F0100040F00200C9B2B14C615C01F0B7
:103EB000C001014302F028020A43C3F3C110AD4917
:103EC00051F820100A43C3F300231343AB72FFF7EA
:103ED0005BB9A246D9F800301FFA8BF098470BF176
:103EE000010B0736EB7A1A1A4340DBB2534003F05A
:103EF000100141F00204D2B29D49895C01F0C00179
:103F0000214300F028020A43C3F3C110994951F834
:103F100020100A43C3F300231343AB72FFF734B9F5
:103F2000A246019B43452DD0D9F800301FFA8BF0F3
:103F300098470BF1010B019B9B691B8843FA80F0AA
:103F4000D9F8003080B298470F36EB7A1A1A4340FE
:103F5000534003F0100141F00204D2B28449895C5D
:103F600001F0C001214300F028020A43C3F3C1104D
:103F7000804951F820100A43C3F300231343AB7266
:103F8000FFF702B9D9F80030288998470736DCE7EF
:103F90005746A246C0F3C204019B53F8240003789D
:103FA0005A1C5340AC7A04F0010403F010010C4396
:103FB000D1B26F4E715C2143DB096E4C54F8233053
:103FC0000B430270AB723E46FFF7DEB8A246019B80
:103FD00043452BD0D9F800301FFA8BF098470BF1EE
:103FE000010B019B9B691C8844FA80F4D9F80030CE
:103FF000A4B220469847411C80EA0103A87A00F049
:10400000010003F010021043C9B2594A525C024346
:10401000C3F3C113574850F823301343AB72D9F898
:104020000830204698471336FFF7AEB8D9F800306D
:10403000288998470346411C4B40A87A00F00100AC
:1040400003F010021043C9B2494A525C0243C3F361
:10405000C113484850F823301343AB72D9F80830E5
:10406000288998470B36FFF78FB85746A246C0F30A
:10407000C204019B53F824000378591E83EA01020D
:10408000AB7A03F0010343F0020302F010041C4377
:10409000CBB2374EF35C1C43C2F3C113354A52F81E
:1040A000233023430170AB723E46FFF76DB8A24642
:1040B000019B43452CD0D9F800301FFA8BF098476C
:1040C0000BF1010B019B9B691C8844FA80F4D9F821
:1040D0000030A4B220469847411E4840AB7A03F016
:1040E000010343F0020300F010021A43C9B2204B4F
:1040F0005B5C1A43C0F3C1131E4850F823301343CE
:10410000AB72D9F80830204698471336FFF73CB811
:10411000D9F80030288998470346411E4B40AA7AB7
:1041200002F0010242F0020203F010001043C9B293
:104130000F4A525C0243C3F3C1130E4850F82330B8
:104140001343AB72D9F80830288998470B36FFF72C
:104150001BB85746A246E87A99280DDCAB7A13F0D3
:10416000010F2CD06023012108E000BFF84F0208A6
:10417000F8500208C84F02086023012100F00F0226
:10418000092A03D8AA7A12F0100F00D00633AA7AAF
:1041900012F0020F16D05B42DBB20344DBB2EB72CB
:1041A000C84CE4565BB2434003F01003234302F0D3
:1041B000020213431943A9723E46FEF7E5BF0023EE
:1041C0001946DBE7DBB2E8E75646A246EB7ADB436B
:1041D000DBB2EB7295F90A2022F03A0203F02803D1
:1041E000134343F01203AB72FEF7CEBF5646A2460E
:1041F000EB7A594283EA010202F0100040F002001B
:10420000CBB2B14CE35C1843C2F3C114AF4B53F8CB
:104210002430034343EAD273E972AB72FEF7B4BFB2
:104220005646A246AB7A03F001025BB223F03B0391
:1042300043EA021395F90B1001F028010B4382F0B9
:1042400001021343AB72FEF79FBF5646A24695F993
:104250000A3023F03B0395F90B2002F028021343A8
:1042600043F00103AB72FEF78FBF5346A246029A9A
:104270009A4200DC0293029E2B6A03F080020AF04D
:104280007F0313432B621FFA8BF06862304607B03E
:10429000BDE8F08F5646A2460023EB62AB62029B5C
:1042A00004330293FEF770BF5646A2460123EB6229
:1042B000AB62029B04330293FEF766BF5646A246EA
:1042C00010F0100F03D100232B63FEF75DBF10F039
:1042D000080F03D101232B63FEF756BF02232B6384
:1042E000FEF752BFA246019B99690A88C0F30110EC
:1042F000083053F820301B88D418534083EA040256
:10430000A87A00F0C400231203F028031843131204
:1043100003F01003034343EA22430C80AB720B36D5
:10432000FEF732BFA2462B89C0F301120832019971
:1043300051F8222011885818AA7A02F0010202448A
:104340004B40534091B219B1111201F0A80000E0A6
:104350004020191201F010010143DB135B4850F8B3
:1043600023300B4343EA22432A81AB720B36FEF71C
:104370000BBFA2462B89C0F301120832019951F8F4
:1043800022201088191AAA7A02F00102891A4340E1
:104390004B408AB21AB10A1202F0A80200E0402291
:1043A00042F002001A1202F010020243C3F3C134B9
:1043B000464850F824000243C3F3004313432981C5
:1043C000AB720B36FEF7E0BEA246C0F30113083312
:1043D000019A52F823201388013313800636FEF722
:1043E000D3BEA246C0F301130833019A52F823202A
:1043F0001388013B13800636FEF7C6BE5646A2461A
:10440000EA7AD30943EA4203EB7295F90A2022F0D3
:104410003B0203F029031343AB72FEF7B5BE5646C9
:10442000A246E87A4100AB7A03F0C40201F0280406
:10443000224342EAD01203F001030B43EB72AA724B
:10444000FEF7A2BE5646A246E97A4A0842EAC112DF
:10445000EA7295F90A3023F03B0302F02802134375
:104460005BB201F001010B43AB72FEF78DBE564605
:10447000A246E97AAB7A4A0842EAC312EA725BB210
:1044800023F03B0302F0280213435BB201F0010169
:104490000B43AB72FEF778BE5646A24600F0070407
:1044A000019850F824100A78D30943EA42020A70AE
:1044B00050F82420127803498A561343AB72FEF752
:1044C00063BE00BFF84F0208F8500208C84F020848
:1044D000A2460446019B43452CD0D9F800301FFA70
:1044E0008BF09847019B9B69B3F8008048FA80F8ED
:1044F000D9F800301FFA88F840469847470047EA45
:10450000E017FFB2B24BDB5743EAE010A872D9F8CC
:10451000083039464046984704F00703062B04D07C
:104520001C46019B53F824301F700BF1020B0F3611
:10453000FEF72ABED9F8003028899847410041EAA1
:10454000E011C9B2A24B5B5643EAE010A872D9F859
:104550000830288998470B36FEF716BE5646A24605
:1045600000F00704019850F82420117895F90A30DA
:1045700003F0010343EA4103137050F824301B7821
:10458000934AD35643EAD113AB72FEF7FDBDA24660
:104590000446019B43452ED0D9F800301FFA8BF01A
:1045A0009847019B9B69B3F8008048FA80F8D9F8D6
:1045B00000301FFA88F840469847AF7A07F00107A5
:1045C00047EA4007FFB2824BDB5743EAE010A8728C
:1045D000D9F8083039464046984704F00703062BBF
:1045E00004D01C46019B53F824301F700BF1020BC2
:1045F0000F36FEF7C9BDD9F8003028899847A97A47
:1046000001F0010141EA4001C9B2714B5B5643EA36
:10461000E010A872D9F80830288998470B36FEF7C1
:10462000B3BD5646A24600F00704019850F8242076
:10463000137803F001015B0843EAC113137050F8CB
:1046400024301B78624AD3560B43AB72FEF79CBDF5
:10465000A2460446019B43452DD0D9F800301FFAED
:104660008BF09847019B9B69B3F8008048FA80F86B
:10467000D9F800301FFA88F84046984700F0010248
:10468000D70147EA6000C7B2514BDB571343AB7207
:10469000D9F8083039464046984704F00703062BFE
:1046A00004D01C46019B53F824301F700BF1020B01
:1046B0000F36FEF769BDD9F800302889984700F019
:1046C0000102D10141EA6001C9B2414B5B5613437B
:1046D000AB72D9F80830288998470B36FEF754BDDD
:1046E0005646A24600F00704019F57F824100B78A5
:1046F000A87A5A0842EAC0120A7057F824201278A1
:1047000033498A5603F001031343AB72FEF73CBDF5
:10471000A2460446019B43452FD0D9F800301FFA2A
:104720008BF09847019B9B69B3F8008048FA80F8AA
:10473000D9F800301FFA88F840469847AF7AFF0151
:10474000FFB247EA6007FFB2214BDB5700F00100E0
:104750001843A872D9F8083039464046984704F003
:104760000703062B04D01C46019B53F824301F700E
:104770000BF1020B0F36FEF707BDD9F80030288980
:104780009847A97AC901C9B241EA6001C9B2104B80
:104790005B5600F001001843A872D9F80830288948
:1047A00098470B36FEF7F0BC5646A24600F00704C9
:1047B000019850F824301A785100197050F82430BC
:1047C0001B780349CB5643EAD213AB72FEF7DCBC2D
:1047D000F84F0208A2460446019B43452AD0D9F867
:1047E00000301FFA8BF09847019B9B69B3F800805B
:1047F00048FA80F8D9F800301FFA88F84046984700
:104800004700FFB2C84BDB5743EAE010A872D9F863
:10481000083039464046984704F00703062B04D079
:104820001C46019B53F824301F700BF1020B0F360E
:10483000FEF7AABCD9F80030288998474100C9B2D0
:10484000B94B5B5643EAE010A872D9F808302889C2
:1048500098470B36FEF798BC5646A24600F0070470
:10486000019850F8242011784B0043F00103137095
:1048700050F824301B78AC4AD35643EAD113AB72BC
:10488000FEF782BCA2460446019B43452FD0D9F8CF
:1048900000301FFA8BF09847019B9B691F8847FAED
:1048A00080F7D9F80030BFB238469847430043F04C
:1048B0000108DBB243F001039B4AD35643EAE01000
:1048C000A872D9F808305FFA88F841463846984708
:1048D00004F00703062B05D01C46019B53F8243037
:1048E00083F800800BF1020B0F36FEF74DBCD9F8B0
:1048F000003028899847430043F00101DBB243F0C0
:104900000103894AD35643EAE010A872D9F8083067
:10491000C9B2288998470B36FEF736BC5646A246E0
:1049200000F00704019B53F824100A7891F9000065
:104930004010087053F824301B787B49CB5602F0A6
:1049400001021343AB72FEF71FBCA2460446019B53
:1049500043452CD0D9F800301FFA8BF09847019BC3
:104960009B69B3F8008048FA80F8D9F800301FFA44
:1049700088F84046984740F34607FFB26A4BDB573A
:1049800000F001001843A872D9F8083039464046B3
:10499000984704F00703062B04D01C46019B53F8EC
:1049A00024301F700BF1020B0F36FEF7EDBBD9F868
:1049B00000302889984740F34601C9B25A4B5B56EC
:1049C00000F001001843A872D9F8083028899847E8
:1049D0000B36FEF7D9BB5646A24600F007040198F5
:1049E00050F8242013785908117050F824201278B8
:1049F0004D498A5603F001031343AB72FEF7C4BB63
:104A0000A2460446019B43452BD0D9F800301FFA3B
:104A10008BF09847019B9B69B3F8008048FA80F8B7
:104A2000D9F800301FFA88F840469847C0F3470786
:104A30003D4BDB5700F001001843A872D9F808304D
:104A400039464046984704F00703062B04D01C461D
:104A5000019B53F824301F700BF1020B0F36FEF749
:104A600093BBD9F8003028899847C0F347012E4BF3
:104A70005B5600F001001843A872D9F80830288965
:104A800098470B36FEF780BBA2460446D9F80030A3
:104A900028899847EB7A1A0202F470426F2C1BD0D7
:104AA000010201F470611B01DBB20B4343EA2013E6
:104AB00043EA0204D9F80820D9B228899047231282
:104AC000EB72194AD35695F90A2002F001021343FA
:104AD000AB720E36FEF758BB03F00F0343EA001328
:104AE000E6E75746A24600F00703019A52F8233042
:104AF0001A78C0F3C2040123A340134012D000214E
:104B000023F07F035BB20B4302F02802134343F010
:104B1000100395F90A2002F001021343AB723E46DE
:104B2000FEF732BB4421EBE7F84F0208A2460446E9
:104B3000019B434529D0D9F800301FFA8BF09847E4
:104B4000019B9B691B8843FA80F70BF1020B093626
:104B5000D9F80030B8B298470336C4F3C204012331
:104B6000A340034014D0002223F07F035BB2134321
:104B700007F028073B4343F0100395F90A2002F0A1
:104B800001021343AB72FEF7FFBA2F890536DFE748
:104B90004422E9E75646A24600F00703019A52F87C
:104BA0002310C0F3C202012303FA02F20B7813436D
:104BB0000B70FEF7E9BAA2460446019B434529D093
:104BC000D9F800301FFA8BF09847019B9B691F882A
:104BD00047FA80F7D9F80030BFB238469847C4F397
:104BE000C202012393400343D9F808205FFA83F8F7
:104BF00041463846904704F00703062B05D01C4673
:104C0000019B53F8243083F800800BF1020B0F3620
:104C1000FEF7BABAD9F8003028899847C4F3C2041D
:104C20000123A3400343D9F80820D9B2288990472B
:104C30000B36FEF7A9BA5646A24600F00703019AC2
:104C400052F82310C0F3C202012303FA02F20B78D8
:104C500023EA02030B70FEF797BAA2460446019BB3
:104C600043452CD0D9F800301FFA8BF09847019BB0
:104C70009B691F8847FA80F7D9F80030BFB23846E1
:104C80009847C4F3C2034FF0010808FA03F820EA7A
:104C90000808D9F808305FFA88F84146384698473E
:104CA00004F00703062B05D01C46019B53F8243063
:104CB00083F800800BF1020B0F36FEF765BAD9F8C6
:104CC000003028899847C4F3C2040121A14020EA9A
:104CD0000101D9F80830C9B2288998470B36FEF788
:104CE00053BAA246D9F804301FFA8BF0984783468E
:104CF0000A36FEF749BAA246AB7AC0F3C204C34AE9
:104D000052F824205340C24A52F82420134208D0BB
:104D1000D9F804301FFA8BF0984783460A36FEF71D
:104D200033BA0BF1020BF9E7A246D9F800301FFAAB
:104D30008BF0984743B201339B440C36FEF724BAFC
:104D4000A246AB7AC0F3C104B04A52F824205340C3
:104D5000AF4A52F8242013420AD0D9F800301FFA83
:104D60008BF0984743B201339B440C36FEF70CBAE4
:104D70000BF1010B0736FEF707BA5646A246019B18
:104D80009B69B3F800B0FEF7FFB9A2466B79013B0F
:104D9000DBB26B7153B1D9F800301FFA8BF0984732
:104DA00043B201339B440D36FEF7EEB90BF1010B14
:104DB0000836FEF7E9B9A246D9F804301FFA8BF09D
:104DC000984704460BF10201288A023880B22882F3
:104DD000D9F80C3089B298471136A346FEF7D4B9FA
:104DE000A246AB7AC0F3C204884A52F8242053404A
:104DF000874A52F82420134213D0D9F804301FFAFE
:104E00008BF0984704460BF10201288A023880B2E1
:104E10002882D9F80C3089B298471136A346FEF79C
:104E2000B3B90BF1020B0A36FEF7AEB9A246D9F8B8
:104E30000430288A984783460A362B8A02332B820D
:104E4000FEF7A2B95746A246AB7AC0F3C2046F4A36
:104E500052F8242053406E4A52F8242013420AD0BC
:104E6000D9F80430288A9847834606F10A031F467A
:104E70002B8A02332B823E460136FEF785B9A246C5
:104E8000EB6AAB62D9F80430288A984783460A3621
:104E90002B8A02332B82FEF777B9A2460446288A72
:104EA000023880B22882D9F80C301FFA8BF198476B
:104EB000C4F3C204574B53F824B00B36FEF764B961
:104EC000A246D9F800301FFA8BF098470BF1010B7E
:104ED000D9F81030E97A9847E8720B36FEF754B9E2
:104EE000A2460446D9F81030697928799847E3102A
:104EF000C4F3C204062C05D003F00703019A52F84C
:104F000023301870444B1B5695F90A2002F0010219
:104F10001343AB720836FEF737B9A2460446D9F8F8
:104F200010306979287998470746D9F80830014642
:104F3000288998476B79013BDAB26A71374B995CE3
:104F400041EAA710A22C17D02B89013B2B812B798A
:104F5000013B57FA83F313F4807100D01121014310
:104F600003F0070353402C4AD35C03F004030B43C4
:104F7000AB720C36FEF708B92B8901332B812B79E4
:104F8000013357FA83F3E6E7B2283CD04FF0FF3302
:104F900001936C79B5F8088007F1FF3A043E0AF1F5
:104FA000020AD9F8103069792879984701460746EE
:104FB000D9F808301FFA88F09847019B9844013CC3
:104FC0002ED01536029BB342E9DC144B1A5DABF1CF
:104FD000020BA5F808806C7142EAA7122B7901999F
:104FE0000B4457FA83F717F4807300D011231A4348
:104FF00007F007077C40084B1B5D03F004031343D5
:10500000AB72FEF7C1B801230193C2E7F851020861
:10501000A84C0208D84F0208F84F0208F8500208BE
:1050200010364022D5E7A246D9F800301FFA8BF09F
:1050300098470BF1010BD9F81430E97A0A469847E2
:105040000B36FEF7A1B8A246C310C0F3C204062C6B
:105050000DD003F00703019A52F823301A78D9F8DB
:1050600014306979287998470836FEF78DB8002200
:10507000F5E7A2460446D9F8003028899847074644
:105080000736D9F8143002466979287998472B8970
:10509000A32C1ED04FF6FF7213449BB22B816A796A
:1050A000013AD2B26A714D49895C41EAA71057FAB8
:1050B00083F313F4807100D01121014303F007033F
:1050C0005340474AD35C03F004030B43AB72FEF733
:1050D0005BB80122E0E7B32839D04FF0FF330193EA
:1050E0006C79B5F8088007F1FF3A043E0AF1020A2C
:1050F000D9F800301FFA88F0984702460746D9F8D9
:105100001430697928799847019B9844013C21D053
:105110001536029BB342E9DC304B1A5DABF1020B52
:10512000A5F808806C7142EAA71257FA88F717F4BD
:10513000807300D011231A4307F007077C40284BE7
:105140001B5D03F004031343AB72FEF71DB801238C
:105150000193C5E710364022E2E7019B43450AD0A0
:10516000D9F800300BF1010080B298471D4B1B5C51
:105170005646FEF71DB8D9F800301FFA8BF0984755
:105180000BF1010B2746F1E705F174030193D9F800
:1051900000301FFA8BF098470BF1010B274656465B
:1051A000FEF704B805F1B4030193D9F800301FFAF3
:1051B0008BF098470BF1010BF0E7D9F800301FFA9C
:1051C0008BF098470BF1010B074A135CCDF8048074
:1051D0002746CDE75646A246FDF7D6BFF85002084F
:1051E000F84F0208C84C0208C84D020830B400232A
:1051F00003604FF6FF7242810282C36283624362A0
:10520000C3610363421D4263041D8463C21DC26304
:10521000811D016400F10902426400F10802826408
:10522000C26400F10B05056544658165C26500F146
:105230001005056644668166C26600F10A020267CF
:105240000F2B10DC03F10C0200EB8202516803F11A
:105250002C0200EB8202516003F11C0200EB82027F
:1052600051600133ECE700F10D03C0F8843000F128
:105270000C03C0F88830C0F88C30C0F89C30C0F8FF
:10528000AC3000F10F03C0F8C43000F10E03C0F8D9
:10529000C830C0F8CC30C0F8DC30C0F8EC3030BCDE
:1052A000704770B582B0044600230360806A28B35B
:1052B0000D461646E362A362236A03F080020133BF
:1052C00003F07F0313432362236B8BB1012B17D0B1
:1052D000208A023880B22082F368A18C9847E06966
:1052E00045EA0020736880B298476062132005E0A9
:1052F0000096042302222046FDF72AFF02B070BD6B
:10530000208A023880B22082F368A18C9847382323
:1053100063620D20F2E72DE9F04182B004460F46AA
:1053200015464FF00008C0F80080466A1368B0B216
:10533000984701460136666200953B464246204644
:10534000FDF706FF02B0BDE8F081000008B5B0F53A
:10535000B64F04D3A0F5B640054B185C08BDB0F5B8
:10536000804F02D2034B185CF8E700F097F8F5E79E
:10537000C05000206052020838B50446013080B2A7
:10538000FFF7E4FF05022046FFF7E0FF00B22843E5
:1053900080B238BD08B5B0F5B64F04D3A0F5B6401D
:1053A000044B195408BDB0F5804FFBD300F044F80E
:1053B000F8E700BFC050002038B504460D46C9B21A
:1053C000FFF7E8FF601C290A80B2FFF7E3FF38BD52
:1053D00010B50A46FE280BD00446FF280CD01F2823
:1053E00011D003460B490C48FDF75CFDFF2002E09D
:1053F000084600F055F910BD034606490748FDF779
:1054000051FD2046F7E7034602490548FDF74AFDEE
:10541000FF20F0E7609202084C520208185202087E
:1054200034520208FE2800D0704708B502F0070089
:1054300000F0E0F808BD000010B5A0F580439BB275
:10544000B3F5C05F10D2C0F3C124C0F30222C0F391
:10545000421300F01F0002EBC40203EBC2020B4B2D
:1054600003EB4213195410BDA0F5B0439BB2B3F542
:10547000407F04D2A0F5B040054B1954F3E70B462A
:10548000024604490448FDF70DFDECE7C413012072
:10549000C4100120B89202086C92020808B50246B6
:1054A000A0F580439BB2B3F5C05F0AD3A0F5B0432B
:1054B0009BB2B3F5407F15D2A0F5B0420C4B985C7F
:1054C0000FE0C0F3C120C2F30221C2F3421302F085
:1054D0001F0201EBC00103EBC101064B03EB4113BB
:1054E000985C08BD04490548FDF7DCFC0020F8E79E
:1054F000C4100120C4130120CC920208909202082B
:10550000F0B44FEAD00C00F0070700240AE004EBE7
:10551000CC0507EBC506124D05EB46156D5C155520
:105520000134E4B2072CF2D901EB40110D4C605C60
:10553000C0F30202C0F3801042EAC002D2B20A48AD
:1055400030F812201A80615CC1F3C202C1F38011ED
:1055500042EAC102D2B230F812205A80F0BC704741
:10556000C4130120C4100120DC920208F0B5A5B0DC
:10557000002538E0BDF8861002EBC60224AE06EB2B
:10558000420222F88C1C0133DBB2072B0ED80646F0
:1055900024AA024412F8081C1A46C3F1070739412D
:1055A00011F0010FE6D0BDF88410E5E70130C0B27C
:1055B000072801D80023E8E7E91CC90089B2201DAB
:1055C000C00080B201AAFDF747FD0134A4B21F2C30
:1055D00007D821AB22AAE1B2E8B2FFF791FF002081
:1055E000E6E70135ADB2172D01D80024EFE725B06D
:1055F000F0BD0000234B1B78434013F0070F00D190
:10560000704730B583B01F4D287000F007001E4C66
:1056100034F810101D48FDF745FC2B7803F0070304
:1056200034F813300093182300224FF4A071104671
:10563000FDF7B2FC2B7803F0070334F81330009326
:10564000C023182220210020FDF7A6FC2B7803F0B0
:10565000070334F8133000931823D8224FF4A071B5
:105660000020FDF799FC2B7803F0070334F8133082
:105670000093C023182220214FF49070FDF78CFC7A
:1056800003B030BDC0100120DC920208A8920208CD
:10569000024B4FF0FF321A605A607047C42B012052
:1056A00010B5044600F062FBFE2C6AD8BF2C24D350
:1056B000BF3C3F2C2BD8DFE804F02C2A2A2A2A2AC8
:1056C0002A2A2A2A2A2A2A2A2A2A2A2A2A2A2A2A3A
:1056D0002A2A2A2A2A2A2A2A2A2A312A2A2A2A2A23
:1056E0002A2A662A2A2A2A2A2A2A362A2A2A2A2AD2
:1056F0002A2A3B2A2A2A402A454A6CB37F2C04D105
:10570000224B1878FF221A7010BDFF20FCE7FF2003
:10571000FAE71E4B5878FF225A70F5E71B4B987832
:10572000FF229A70F0E7194BD878FF22DA70EBE786
:10573000164B1879FF221A71E6E7144B5879FF22AD
:105740005A71E1E7114B9879FF229A71DCE70F4B10
:10575000D879FF22DA71D7E70C4BDA7998790240D1
:10576000587910401A791040DA780240987802404F
:10577000587810401A7810404FF0FF321A605A6083
:10578000C2E7FF20C0E70020BEE700BFC42B012016
:1057900049F67F73984200F07D8125D94DF6FF636D
:1057A000984200F0A481B0F55F4FC0F0D1804FF671
:1057B000FF53984200F0AA81B0F57E4FC0F03081CF
:1057C0004FF6BF73984200F0AD8140F246814FF62C
:1057D000FB73984200F0AC814FF6FE73984240F0A4
:1057E00048810123052264E045F6EF73984200F0FA
:1057F00054811BD947F6BF73984200F0478177D98F
:1058000048F6FF73984200F06C81B0F5104FC0F07D
:10581000918049F6FF53984200F0668149F6FF6394
:10582000984240F0948002230B2242E043F6FF634B
:10583000984200F03581B0F57C5F13D345F6FF63E5
:10584000984200F03C81B0F5BE4F43D345F67F73DC
:10585000984200F03A8145F6BF73984247D105233C
:105860001C2226E041F6BF73984200F01C81B0F57F
:10587000FE5F0BD341F6EF73984200F01D8141F6B5
:10588000FB73984225D10323132212E041F6FF63F4
:10589000984200F00B8141F67F73984203D1A64BEA
:1058A00005221A70704741F6FF5398420DD101232B
:1058B0000922C3EB8371C3EB81010A44012101FA80
:1058C00002F2D2439D49CA547047704707232722EA
:1058D000EFE7704743F67F73984200F0F38045F698
:1058E000FF53984202D100230422E2E77047704739
:1058F00047F6FF53984200F0EB80B0F5FC4F0BD316
:1059000047F6FF63984200F0E98047F67F739842BC
:105910000FD101230822CCE745F6FB73984200F033
:10592000DA8045F6FE73984202D100231A46C0E79A
:105930007047704747F6DF73984200F09F8047F644
:10594000FB73984202D100230222B2E770477047EE
:105950004BF6BF73984200F0CD802FD94BF6FE7303
:10596000984255D84BF6EF73984250D3A0F53F407C
:10597000EF380F28A8D801A353F820F0CD5800081D
:10598000C9580008C9580008C9580008C958000873
:10599000C9580008C9580008C9580008855A0008A5
:1059A000C9580008C9580008C9580008B35A000867
:1059B000C9580008C9580008755A00084BF6FF532B
:1059C000984200F09A80B0F53E4F0BD34BF6FF6340
:1059D000984200F098804BF67F73984216D10623C8
:1059E000202266E749F6EF73984200F0898049F675
:1059F000FB73984202D1032311225AE749F6BF7381
:105A0000984202D10123072253E77047704770473D
:105A10004DF6FF53984202D10723252249E77047EC
:105A20004DF6EF73984274D00AD94DF6FB73984245
:105A300075D04FF2FF7398420ED10723232238E727
:105A40004DF67F73984267D04DF6BF73984202D1EE
:105A5000052319222DE7704770474FF6FF639842E0
:105A600063D04FF67F73984202D10423182220E7B7
:105A700070477047304B01221A7070472E4B02223C
:105A80001A7070472C4B03221A7070472A4B04225D
:105A90001A707047032310220BE70423172208E72C
:105AA00002230A2205E70423142202E70323122219
:105AB000FFE607232622FCE604231522F9E6062347
:105AC0002222F6E603230F22F3E605231D22F0E649
:105AD00003231222EDE604231822EAE602230D2214
